{
  "_format": "hh-sol-artifact-1",
  "contractName": "Faucet",
  "sourceName": "contracts/Faucet.sol",
  "abi": [
    {
      "inputs": [
        {
          "internalType": "address",
          "name": "_token",
          "type": "address"
        },
        {
          "internalType": "uint256",
          "name": "_amountAllowed",
          "type": "uint256"
        },
        {
          "internalType": "uint256",
          "name": "_claimInterval",
          "type": "uint256"
        }
      ],
      "stateMutability": "nonpayable",
      "type": "constructor"
    },
    {
      "inputs": [
        {
          "internalType": "uint256",
          "name": "timeLeft",
          "type": "uint256"
        }
      ],
      "name": "ClaimTooSoon",
      "type": "error"
    },
    {
      "inputs": [
        {
          "internalType": "uint256",
          "name": "requested",
          "type": "uint256"
        },
        {
          "internalType": "uint256",
          "name": "available",
          "type": "uint256"
        }
      ],
      "name": "FaucetInsufficientFunds",
      "type": "error"
    },
    {
      "inputs": [
        {
          "internalType": "address",
          "name": "owner",
          "type": "address"
        }
      ],
      "name": "OwnableInvalidOwner",
      "type": "error"
    },
    {
      "inputs": [
        {
          "internalType": "address",
          "name": "account",
          "type": "address"
        }
      ],
      "name": "OwnableUnauthorizedAccount",
      "type": "error"
    },
    {
      "anonymous": false,
      "inputs": [
        {
          "indexed": true,
          "internalType": "address",
          "name": "user",
          "type": "address"
        },
        {
          "indexed": false,
          "internalType": "uint256",
          "name": "amount",
          "type": "uint256"
        }
      ],
      "name": "Claimed",
      "type": "event"
    },
    {
      "anonymous": false,
      "inputs": [
        {
          "indexed": true,
          "internalType": "address",
          "name": "previousOwner",
          "type": "address"
        },
        {
          "indexed": true,
          "internalType": "address",
          "name": "newOwner",
          "type": "address"
        }
      ],
      "name": "OwnershipTransferred",
      "type": "event"
    },
    {
      "inputs": [],
      "name": "amountAllowed",
      "outputs": [
        {
          "internalType": "uint256",
          "name": "",
          "type": "uint256"
        }
      ],
      "stateMutability": "view",
      "type": "function"
    },
    {
      "inputs": [],
      "name": "claimInterval",
      "outputs": [
        {
          "internalType": "uint256",
          "name": "",
          "type": "uint256"
        }
      ],
      "stateMutability": "view",
      "type": "function"
    },
    {
      "inputs": [],
      "name": "claimTokens",
      "outputs": [],
      "stateMutability": "nonpayable",
      "type": "function"
    },
    {
      "inputs": [
        {
          "internalType": "address",
          "name": "",
          "type": "address"
        }
      ],
      "name": "lastClaimed",
      "outputs": [
        {
          "internalType": "uint256",
          "name": "",
          "type": "uint256"
        }
      ],
      "stateMutability": "view",
      "type": "function"
    },
    {
      "inputs": [],
      "name": "owner",
      "outputs": [
        {
          "internalType": "address",
          "name": "",
          "type": "address"
        }
      ],
      "stateMutability": "view",
      "type": "function"
    },
    {
      "inputs": [],
      "name": "renounceOwnership",
      "outputs": [],
      "stateMutability": "nonpayable",
      "type": "function"
    },
    {
      "inputs": [
        {
          "internalType": "uint256",
          "name": "_amountAllowed",
          "type": "uint256"
        }
      ],
      "name": "setAmountAllowed",
      "outputs": [],
      "stateMutability": "nonpayable",
      "type": "function"
    },
    {
      "inputs": [
        {
          "internalType": "uint256",
          "name": "_claimInterval",
          "type": "uint256"
        }
      ],
      "name": "setClaimInterval",
      "outputs": [],
      "stateMutability": "nonpayable",
      "type": "function"
    },
    {
      "inputs": [],
      "name": "token",
      "outputs": [
        {
          "internalType": "contract IERC20",
          "name": "",
          "type": "address"
        }
      ],
      "stateMutability": "view",
      "type": "function"
    },
    {
      "inputs": [
        {
          "internalType": "address",
          "name": "newOwner",
          "type": "address"
        }
      ],
      "name": "transferOwnership",
      "outputs": [],
      "stateMutability": "nonpayable",
      "type": "function"
    },
    {
      "inputs": [
        {
          "internalType": "uint256",
          "name": "_amount",
          "type": "uint256"
        }
      ],
      "name": "withdrawTokens",
      "outputs": [],
      "stateMutability": "nonpayable",
      "type": "function"
    }
  ],
  "bytecode": "0x60806040523480156200001157600080fd5b5060405162001407380380620014078339818101604052810190620000379190620003c3565b33600073ffffffffffffffffffffffffffffffffffffffff168173ffffffffffffffffffffffffffffffffffffffff1603620000ad5760006040517f1e4fbdf7000000000000000000000000000000000000000000000000000000008152600401620000a4919062000430565b60405180910390fd5b620000be816200014460201b60201c565b50620000ec604051806080016040528060438152602001620013c4604391393384846200020860201b60201c565b82600160006101000a81548173ffffffffffffffffffffffffffffffffffffffff021916908373ffffffffffffffffffffffffffffffffffffffff16021790555081600281905550806003819055505050506200057b565b60008060009054906101000a900473ffffffffffffffffffffffffffffffffffffffff169050816000806101000a81548173ffffffffffffffffffffffffffffffffffffffff021916908373ffffffffffffffffffffffffffffffffffffffff1602179055508173ffffffffffffffffffffffffffffffffffffffff168173ffffffffffffffffffffffffffffffffffffffff167f8be0079c531659141344cd1fd0a4f28419497f9722a3daafe3b4186f6b6457e060405160405180910390a35050565b620002ae84848484604051602401620002259493929190620004f8565b6040516020818303038152906040527ff8f51b1e000000000000000000000000000000000000000000000000000000007bffffffffffffffffffffffffffffffffffffffffffffffffffffffff19166020820180517bffffffffffffffffffffffffffffffffffffffffffffffffffffffff8381831617835250505050620002b460201b60201c565b50505050565b620002da81620002d5620002dd60201b6200076c17620002fe60201b60201c565b60201c565b50565b60006a636f6e736f6c652e6c6f679050600080835160208501845afa505050565b6200031260201b6200099e17819050919050565b6200031c6200054c565b565b600080fd5b600073ffffffffffffffffffffffffffffffffffffffff82169050919050565b6000620003508262000323565b9050919050565b620003628162000343565b81146200036e57600080fd5b50565b600081519050620003828162000357565b92915050565b6000819050919050565b6200039d8162000388565b8114620003a957600080fd5b50565b600081519050620003bd8162000392565b92915050565b600080600060608486031215620003df57620003de6200031e565b5b6000620003ef8682870162000371565b93505060206200040286828701620003ac565b92505060406200041586828701620003ac565b9150509250925092565b6200042a8162000343565b82525050565b60006020820190506200044760008301846200041f565b92915050565b600081519050919050565b600082825260208201905092915050565b60005b83811015620004895780820151818401526020810190506200046c565b60008484015250505050565b6000601f19601f8301169050919050565b6000620004b3826200044d565b620004bf818562000458565b9350620004d181856020860162000469565b620004dc8162000495565b840191505092915050565b620004f28162000388565b82525050565b60006080820190508181036000830152620005148187620004a6565b90506200052560208301866200041f565b620005346040830185620004e7565b620005436060830184620004e7565b95945050505050565b7f4e487b7100000000000000000000000000000000000000000000000000000000600052605160045260246000fd5b610e39806200058b6000396000f3fe608060405234801561001057600080fd5b50600436106100a95760003560e01c80637aa14233116100715780637aa142331461012c5780638da5cb5b146101485780639ad2cd1414610166578063f2d57adf14610184578063f2fde38b146101a0578063fc0c546a146101bc576100a9565b8063013eba92146100ae5780630b433a12146100de578063315a095d146100fc57806348c54b9d14610118578063715018a614610122575b600080fd5b6100c860048036038101906100c39190610a0b565b6101da565b6040516100d59190610a51565b60405180910390f35b6100e66101f2565b6040516100f39190610a51565b60405180910390f35b61011660048036038101906101119190610a98565b6101f8565b005b6101206102a4565b005b61012a610659565b005b61014660048036038101906101419190610a98565b61066d565b005b61015061067f565b60405161015d9190610ad4565b60405180910390f35b61016e6106a8565b60405161017b9190610a51565b60405180910390f35b61019e60048036038101906101999190610a98565b6106ae565b005b6101ba60048036038101906101b59190610a0b565b6106c0565b005b6101c4610746565b6040516101d19190610b4e565b60405180910390f35b60046020528060005260406000206000915090505481565b60035481565b61020061078d565b600160009054906101000a900473ffffffffffffffffffffffffffffffffffffffff1673ffffffffffffffffffffffffffffffffffffffff1663a9059cbb33836040518363ffffffff1660e01b815260040161025d929190610b69565b6020604051808303816000875af115801561027c573d6000803e3d6000fd5b505050506040513d601f19601f820116820180604052508101906102a09190610bca565b5050565b6102e26040518060400160405280601581526020017f63616c6c656420636c61696d546f6b656e732e2e2e0000000000000000000000815250610814565b60004290506000600460003373ffffffffffffffffffffffffffffffffffffffff1673ffffffffffffffffffffffffffffffffffffffff1681526020019081526020016000205490506103696040518060400160405280601e81526020017f7374617274656420636c61696d696e6720746f6b656e20706172742e2e2e0000815250610814565b600354816103779190610c26565b821015610411576103bc6040518060400160405280601e81526020017f726576657274696e67207769746820636c61696d746f6f736f6f6e2e2e2e0000815250610814565b81600354826103cb9190610c26565b6103d59190610c5a565b6040517f854f3dd00000000000000000000000000000000000000000000000000000000081526004016104089190610a51565b60405180910390fd5b6000600160009054906101000a900473ffffffffffffffffffffffffffffffffffffffff1673ffffffffffffffffffffffffffffffffffffffff166370a08231306040518263ffffffff1660e01b815260040161046e9190610ad4565b602060405180830381865afa15801561048b573d6000803e3d6000fd5b505050506040513d601f19601f820116820180604052508101906104af9190610ca3565b905060025481101561051d576104dc604051806060016040528060298152602001610ddb60299139610814565b600254816040517fa1f41145000000000000000000000000000000000000000000000000000000008152600401610514929190610cd0565b60405180910390fd5b82600460003373ffffffffffffffffffffffffffffffffffffffff1673ffffffffffffffffffffffffffffffffffffffff16815260200190815260200160002081905550600160009054906101000a900473ffffffffffffffffffffffffffffffffffffffff1673ffffffffffffffffffffffffffffffffffffffff1663a9059cbb336002546040518363ffffffff1660e01b81526004016105c0929190610b69565b6020604051808303816000875af11580156105df573d6000803e3d6000fd5b505050506040513d601f19601f820116820180604052508101906106039190610bca565b503373ffffffffffffffffffffffffffffffffffffffff167fd8138f8a3f377c5259ca548e70e4c2de94f129f5a11036a15b69513cba2b426a60025460405161064c9190610a51565b60405180910390a2505050565b61066161078d565b61066b60006108ad565b565b61067561078d565b8060028190555050565b60008060009054906101000a900473ffffffffffffffffffffffffffffffffffffffff16905090565b60025481565b6106b661078d565b8060038190555050565b6106c861078d565b600073ffffffffffffffffffffffffffffffffffffffff168173ffffffffffffffffffffffffffffffffffffffff160361073a5760006040517f1e4fbdf70000000000000000000000000000000000000000000000000000000081526004016107319190610ad4565b60405180910390fd5b610743816108ad565b50565b600160009054906101000a900473ffffffffffffffffffffffffffffffffffffffff1681565b60006a636f6e736f6c652e6c6f679050600080835160208501845afa505050565b610795610971565b73ffffffffffffffffffffffffffffffffffffffff166107b361067f565b73ffffffffffffffffffffffffffffffffffffffff1614610812576107d6610971565b6040517f118cdaa70000000000000000000000000000000000000000000000000000000081526004016108099190610ad4565b60405180910390fd5b565b6108aa816040516024016108289190610d89565b6040516020818303038152906040527f41304fac000000000000000000000000000000000000000000000000000000007bffffffffffffffffffffffffffffffffffffffffffffffffffffffff19166020820180517bffffffffffffffffffffffffffffffffffffffffffffffffffffffff8381831617835250505050610979565b50565b60008060009054906101000a900473ffffffffffffffffffffffffffffffffffffffff169050816000806101000a81548173ffffffffffffffffffffffffffffffffffffffff021916908373ffffffffffffffffffffffffffffffffffffffff1602179055508173ffffffffffffffffffffffffffffffffffffffff168173ffffffffffffffffffffffffffffffffffffffff167f8be0079c531659141344cd1fd0a4f28419497f9722a3daafe3b4186f6b6457e060405160405180910390a35050565b600033905090565b6109908161098861076c610993565b63ffffffff16565b50565b61099e819050919050565b6109a6610dab565b565b600080fd5b600073ffffffffffffffffffffffffffffffffffffffff82169050919050565b60006109d8826109ad565b9050919050565b6109e8816109cd565b81146109f357600080fd5b50565b600081359050610a05816109df565b92915050565b600060208284031215610a2157610a206109a8565b5b6000610a2f848285016109f6565b91505092915050565b6000819050919050565b610a4b81610a38565b82525050565b6000602082019050610a666000830184610a42565b92915050565b610a7581610a38565b8114610a8057600080fd5b50565b600081359050610a9281610a6c565b92915050565b600060208284031215610aae57610aad6109a8565b5b6000610abc84828501610a83565b91505092915050565b610ace816109cd565b82525050565b6000602082019050610ae96000830184610ac5565b92915050565b6000819050919050565b6000610b14610b0f610b0a846109ad565b610aef565b6109ad565b9050919050565b6000610b2682610af9565b9050919050565b6000610b3882610b1b565b9050919050565b610b4881610b2d565b82525050565b6000602082019050610b636000830184610b3f565b92915050565b6000604082019050610b7e6000830185610ac5565b610b8b6020830184610a42565b9392505050565b60008115159050919050565b610ba781610b92565b8114610bb257600080fd5b50565b600081519050610bc481610b9e565b92915050565b600060208284031215610be057610bdf6109a8565b5b6000610bee84828501610bb5565b91505092915050565b7f4e487b7100000000000000000000000000000000000000000000000000000000600052601160045260246000fd5b6000610c3182610a38565b9150610c3c83610a38565b9250828201905080821115610c5457610c53610bf7565b5b92915050565b6000610c6582610a38565b9150610c7083610a38565b9250828203905081811115610c8857610c87610bf7565b5b92915050565b600081519050610c9d81610a6c565b92915050565b600060208284031215610cb957610cb86109a8565b5b6000610cc784828501610c8e565b91505092915050565b6000604082019050610ce56000830185610a42565b610cf26020830184610a42565b9392505050565b600081519050919050565b600082825260208201905092915050565b60005b83811015610d33578082015181840152602081019050610d18565b60008484015250505050565b6000601f19601f8301169050919050565b6000610d5b82610cf9565b610d658185610d04565b9350610d75818560208601610d15565b610d7e81610d3f565b840191505092915050565b60006020820190508181036000830152610da38184610d50565b905092915050565b7f4e487b7100000000000000000000000000000000000000000000000000000000600052605160045260246000fdfe726576657274696e67207769746820666175636574696e73756666696369656e7466756e64732e2e2ea2646970667358221220a402ffb832d8891220e1115cf4fcf9c1d79b2165b13320d979625522567027ab64736f6c634300081800336f776e61626c65206d73672e73656e6465723a202573202e2e2e20616d6f756e74416c6c6f7765643a202573202e2e2e2e20636c61696d496e74657276616c3a202573",
  "linkReferences": {},
  "deployedLinkReferences": {}
}