{
    "_format": "hh-sol-artifact-1",
    "contractName": "Staking",
    "sourceName": "contracts/Staking.sol",
    "abi": [
        {
            "inputs": [
                {
                    "internalType": "address",
                    "name": "stakingToken",
                    "type": "address"
                },
                {
                    "internalType": "address",
                    "name": "rewardToken",
                    "type": "address"
                }
            ],
            "stateMutability": "nonpayable",
            "type": "constructor"
        },
        {
            "inputs": [],
            "name": "AmountMustBeGreaterThanZero",
            "type": "error"
        },
        {
            "inputs": [],
            "name": "AmountNotEnough",
            "type": "error"
        },
        {
            "inputs": [],
            "name": "EnforcedPause",
            "type": "error"
        },
        {
            "inputs": [],
            "name": "ExpectedPause",
            "type": "error"
        },
        {
            "inputs": [
                {
                    "internalType": "address",
                    "name": "owner",
                    "type": "address"
                }
            ],
            "name": "OwnableInvalidOwner",
            "type": "error"
        },
        {
            "inputs": [
                {
                    "internalType": "address",
                    "name": "account",
                    "type": "address"
                }
            ],
            "name": "OwnableUnauthorizedAccount",
            "type": "error"
        },
        {
            "inputs": [],
            "name": "ReentrancyGuardReentrantCall",
            "type": "error"
        },
        {
            "inputs": [],
            "name": "TransferFailed",
            "type": "error"
        },
        {
            "anonymous": false,
            "inputs": [
                {
                    "indexed": true,
                    "internalType": "address",
                    "name": "user",
                    "type": "address"
                },
                {
                    "indexed": true,
                    "internalType": "uint256",
                    "name": "amount",
                    "type": "uint256"
                }
            ],
            "name": "EmergencyWithdrawal",
            "type": "event"
        },
        {
            "anonymous": false,
            "inputs": [
                {
                    "indexed": true,
                    "internalType": "address",
                    "name": "previousOwner",
                    "type": "address"
                },
                {
                    "indexed": true,
                    "internalType": "address",
                    "name": "newOwner",
                    "type": "address"
                }
            ],
            "name": "OwnershipTransferred",
            "type": "event"
        },
        {
            "anonymous": false,
            "inputs": [
                {
                    "indexed": false,
                    "internalType": "address",
                    "name": "account",
                    "type": "address"
                }
            ],
            "name": "Paused",
            "type": "event"
        },
        {
            "anonymous": false,
            "inputs": [
                {
                    "indexed": false,
                    "internalType": "uint256",
                    "name": "newRewardRate",
                    "type": "uint256"
                }
            ],
            "name": "RewardRateUpdated",
            "type": "event"
        },
        {
            "anonymous": false,
            "inputs": [
                {
                    "indexed": true,
                    "internalType": "address",
                    "name": "user",
                    "type": "address"
                },
                {
                    "indexed": true,
                    "internalType": "uint256",
                    "name": "amount",
                    "type": "uint256"
                }
            ],
            "name": "RewardsClaimed",
            "type": "event"
        },
        {
            "anonymous": false,
            "inputs": [
                {
                    "indexed": true,
                    "internalType": "address",
                    "name": "user",
                    "type": "address"
                },
                {
                    "indexed": true,
                    "internalType": "uint256",
                    "name": "amount",
                    "type": "uint256"
                }
            ],
            "name": "Staked",
            "type": "event"
        },
        {
            "anonymous": false,
            "inputs": [
                {
                    "indexed": false,
                    "internalType": "address",
                    "name": "account",
                    "type": "address"
                }
            ],
            "name": "Unpaused",
            "type": "event"
        },
        {
            "anonymous": false,
            "inputs": [
                {
                    "indexed": true,
                    "internalType": "address",
                    "name": "user",
                    "type": "address"
                },
                {
                    "indexed": true,
                    "internalType": "uint256",
                    "name": "amount",
                    "type": "uint256"
                }
            ],
            "name": "Withdrawn",
            "type": "event"
        },
        {
            "inputs": [
                {
                    "internalType": "address",
                    "name": "account",
                    "type": "address"
                }
            ],
            "name": "earned",
            "outputs": [
                {
                    "internalType": "uint256",
                    "name": "",
                    "type": "uint256"
                }
            ],
            "stateMutability": "view",
            "type": "function"
        },
        {
            "inputs": [],
            "name": "emergencyWithdraw",
            "outputs": [],
            "stateMutability": "nonpayable",
            "type": "function"
        },
        {
            "inputs": [],
            "name": "getReward",
            "outputs": [],
            "stateMutability": "nonpayable",
            "type": "function"
        },
        {
            "inputs": [],
            "name": "lastUpdateTime",
            "outputs": [
                {
                    "internalType": "uint256",
                    "name": "",
                    "type": "uint256"
                }
            ],
            "stateMutability": "view",
            "type": "function"
        },
        {
            "inputs": [],
            "name": "owner",
            "outputs": [
                {
                    "internalType": "address",
                    "name": "",
                    "type": "address"
                }
            ],
            "stateMutability": "view",
            "type": "function"
        },
        {
            "inputs": [],
            "name": "pause",
            "outputs": [],
            "stateMutability": "nonpayable",
            "type": "function"
        },
        {
            "inputs": [],
            "name": "paused",
            "outputs": [
                {
                    "internalType": "bool",
                    "name": "",
                    "type": "bool"
                }
            ],
            "stateMutability": "view",
            "type": "function"
        },
        {
            "inputs": [],
            "name": "renounceOwnership",
            "outputs": [],
            "stateMutability": "nonpayable",
            "type": "function"
        },
        {
            "inputs": [
                {
                    "internalType": "address",
                    "name": "account",
                    "type": "address"
                }
            ],
            "name": "rewardBalanceOf",
            "outputs": [
                {
                    "internalType": "uint256",
                    "name": "",
                    "type": "uint256"
                }
            ],
            "stateMutability": "view",
            "type": "function"
        },
        {
            "inputs": [],
            "name": "rewardPerToken",
            "outputs": [
                {
                    "internalType": "uint256",
                    "name": "",
                    "type": "uint256"
                }
            ],
            "stateMutability": "view",
            "type": "function"
        },
        {
            "inputs": [],
            "name": "rewardPerTokenStored",
            "outputs": [
                {
                    "internalType": "uint256",
                    "name": "",
                    "type": "uint256"
                }
            ],
            "stateMutability": "view",
            "type": "function"
        },
        {
            "inputs": [],
            "name": "rewardRate",
            "outputs": [
                {
                    "internalType": "uint256",
                    "name": "",
                    "type": "uint256"
                }
            ],
            "stateMutability": "view",
            "type": "function"
        },
        {
            "inputs": [
                {
                    "internalType": "address",
                    "name": "",
                    "type": "address"
                }
            ],
            "name": "rewards",
            "outputs": [
                {
                    "internalType": "uint256",
                    "name": "",
                    "type": "uint256"
                }
            ],
            "stateMutability": "view",
            "type": "function"
        },
        {
            "inputs": [],
            "name": "s_rewardToken",
            "outputs": [
                {
                    "internalType": "contract IERC20",
                    "name": "",
                    "type": "address"
                }
            ],
            "stateMutability": "view",
            "type": "function"
        },
        {
            "inputs": [],
            "name": "s_stakingToken",
            "outputs": [
                {
                    "internalType": "contract IERC20",
                    "name": "",
                    "type": "address"
                }
            ],
            "stateMutability": "view",
            "type": "function"
        },
        {
            "inputs": [
                {
                    "internalType": "uint256",
                    "name": "_rewardRate",
                    "type": "uint256"
                }
            ],
            "name": "setRewardRate",
            "outputs": [],
            "stateMutability": "nonpayable",
            "type": "function"
        },
        {
            "inputs": [
                {
                    "internalType": "uint256",
                    "name": "amount",
                    "type": "uint256"
                }
            ],
            "name": "stake",
            "outputs": [],
            "stateMutability": "nonpayable",
            "type": "function"
        },
        {
            "inputs": [
                {
                    "internalType": "address",
                    "name": "",
                    "type": "address"
                }
            ],
            "name": "stakedBalance",
            "outputs": [
                {
                    "internalType": "uint256",
                    "name": "",
                    "type": "uint256"
                }
            ],
            "stateMutability": "view",
            "type": "function"
        },
        {
            "inputs": [
                {
                    "internalType": "address",
                    "name": "account",
                    "type": "address"
                }
            ],
            "name": "stakedBalanceOf",
            "outputs": [
                {
                    "internalType": "uint256",
                    "name": "",
                    "type": "uint256"
                }
            ],
            "stateMutability": "view",
            "type": "function"
        },
        {
            "inputs": [],
            "name": "totalStaked",
            "outputs": [
                {
                    "internalType": "uint256",
                    "name": "",
                    "type": "uint256"
                }
            ],
            "stateMutability": "view",
            "type": "function"
        },
        {
            "inputs": [
                {
                    "internalType": "address",
                    "name": "newOwner",
                    "type": "address"
                }
            ],
            "name": "transferOwnership",
            "outputs": [],
            "stateMutability": "nonpayable",
            "type": "function"
        },
        {
            "inputs": [],
            "name": "unpause",
            "outputs": [],
            "stateMutability": "nonpayable",
            "type": "function"
        },
        {
            "inputs": [
                {
                    "internalType": "address",
                    "name": "",
                    "type": "address"
                }
            ],
            "name": "userRewardPerTokenPaid",
            "outputs": [
                {
                    "internalType": "uint256",
                    "name": "",
                    "type": "uint256"
                }
            ],
            "stateMutability": "view",
            "type": "function"
        },
        {
            "inputs": [
                {
                    "internalType": "uint256",
                    "name": "amount",
                    "type": "uint256"
                }
            ],
            "name": "withdrawStakedTokens",
            "outputs": [],
            "stateMutability": "nonpayable",
            "type": "function"
        }
    ],
    "bytecode": "0x60806040523480156200001157600080fd5b5060405162001cb338038062001cb38339818101604052810190620000379190620002aa565b336001600081905550600073ffffffffffffffffffffffffffffffffffffffff168173ffffffffffffffffffffffffffffffffffffffff1603620000b55760006040517f1e4fbdf7000000000000000000000000000000000000000000000000000000008152600401620000ac919062000302565b60405180910390fd5b620000c6816200017a60201b60201c565b506000600160146101000a81548160ff02191690831515021790555081600260006101000a81548173ffffffffffffffffffffffffffffffffffffffff021916908373ffffffffffffffffffffffffffffffffffffffff16021790555080600360006101000a81548173ffffffffffffffffffffffffffffffffffffffff021916908373ffffffffffffffffffffffffffffffffffffffff16021790555066038d7ea4c6800060048190555050506200031f565b6000600160009054906101000a900473ffffffffffffffffffffffffffffffffffffffff16905081600160006101000a81548173ffffffffffffffffffffffffffffffffffffffff021916908373ffffffffffffffffffffffffffffffffffffffff1602179055508173ffffffffffffffffffffffffffffffffffffffff168173ffffffffffffffffffffffffffffffffffffffff167f8be0079c531659141344cd1fd0a4f28419497f9722a3daafe3b4186f6b6457e060405160405180910390a35050565b600080fd5b600073ffffffffffffffffffffffffffffffffffffffff82169050919050565b6000620002728262000245565b9050919050565b620002848162000265565b81146200029057600080fd5b50565b600081519050620002a48162000279565b92915050565b60008060408385031215620002c457620002c362000240565b5b6000620002d48582860162000293565b9250506020620002e78582860162000293565b9150509250929050565b620002fc8162000265565b82525050565b6000602082019050620003196000830184620002f1565b92915050565b611984806200032f6000396000f3fe608060405234801561001057600080fd5b50600436106101575760003560e01c80638456cb59116100c3578063c8f33c911161007c578063c8f33c911461037c578063cd3daf9d1461039a578063db2e21bc146103b8578063df136d65146103c2578063e964b644146103e0578063f2fde38b1461041057610157565b80638456cb59146102ce5780638b876347146102d85780638da5cb5b146103085780639e447fc614610326578063a694fc3a14610342578063adca9b721461035e57610157565b80635c975abb116101155780635c975abb1461021c578063602172671461023a5780636374cc001461026a578063715018a6146102885780637b0a47ee14610292578063817b1cd2146102b057610157565b80628cc2621461015c5780630700037d1461018c5780630a57336a146101bc57806316765391146101d85780633d18b912146102085780633f4ba83a14610212575b600080fd5b610176600480360381019061017191906115c8565b61042c565b604051610183919061160e565b60405180910390f35b6101a660048036038101906101a191906115c8565b61052e565b6040516101b3919061160e565b60405180910390f35b6101d660048036038101906101d19190611655565b610546565b005b6101f260048036038101906101ed91906115c8565b61084b565b6040516101ff919061160e565b60405180910390f35b610210610894565b005b61021a610b3c565b005b610224610b4e565b604051610231919061169d565b60405180910390f35b610254600480360381019061024f91906115c8565b610b65565b604051610261919061160e565b60405180910390f35b610272610b7d565b60405161027f9190611717565b60405180910390f35b610290610ba3565b005b61029a610bb7565b6040516102a7919061160e565b60405180910390f35b6102b8610bbd565b6040516102c5919061160e565b60405180910390f35b6102d6610bc7565b005b6102f260048036038101906102ed91906115c8565b610bd9565b6040516102ff919061160e565b60405180910390f35b610310610bf1565b60405161031d9190611741565b60405180910390f35b610340600480360381019061033b9190611655565b610c1b565b005b61035c60048036038101906103579190611655565b610c64565b005b610366610ef3565b6040516103739190611717565b60405180910390f35b610384610f19565b604051610391919061160e565b60405180910390f35b6103a2610f1f565b6040516103af919061160e565b60405180910390f35b6103c0610f8e565b005b6103ca6111a5565b6040516103d7919061160e565b60405180910390f35b6103fa60048036038101906103f591906115c8565b6111ab565b604051610407919061160e565b60405180910390f35b61042a600480360381019061042591906115c8565b6111f4565b005b6000600960008373ffffffffffffffffffffffffffffffffffffffff1673ffffffffffffffffffffffffffffffffffffffff16815260200190815260200160002054670de0b6b3a7640000600a60008573ffffffffffffffffffffffffffffffffffffffff1673ffffffffffffffffffffffffffffffffffffffff168152602001908152602001600020546104bf610f1f565b6104c9919061178b565b600860008673ffffffffffffffffffffffffffffffffffffffff1673ffffffffffffffffffffffffffffffffffffffff1681526020019081526020016000205461051391906117bf565b61051d9190611830565b6105279190611861565b9050919050565b60096020528060005260406000206000915090505481565b61054e61127a565b6105566112c0565b3361055f610f1f565b600681905550426007819055506105758161042c565b600960008373ffffffffffffffffffffffffffffffffffffffff1673ffffffffffffffffffffffffffffffffffffffff16815260200190815260200160002081905550600654600a60008373ffffffffffffffffffffffffffffffffffffffff1673ffffffffffffffffffffffffffffffffffffffff1681526020019081526020016000208190555060008211610638576040517f5e85ae7300000000000000000000000000000000000000000000000000000000815260040160405180910390fd5b81600860003373ffffffffffffffffffffffffffffffffffffffff1673ffffffffffffffffffffffffffffffffffffffff16815260200190815260200160002054116106b0576040517fcb6e851c00000000000000000000000000000000000000000000000000000000815260040160405180910390fd5b81600560008282546106c2919061178b565b9250508190555081600860003373ffffffffffffffffffffffffffffffffffffffff1673ffffffffffffffffffffffffffffffffffffffff1681526020019081526020016000206000828254610718919061178b565b92505081905550813373ffffffffffffffffffffffffffffffffffffffff167f7084f5476618d8e60b11ef0d7d3f06914655adb8793e28ff7f018d4c76d505d560405160405180910390a36000600260009054906101000a900473ffffffffffffffffffffffffffffffffffffffff1673ffffffffffffffffffffffffffffffffffffffff1663a9059cbb33856040518363ffffffff1660e01b81526004016107c2929190611895565b6020604051808303816000875af11580156107e1573d6000803e3d6000fd5b505050506040513d601f19601f8201168201806040525081019061080591906118ea565b90508061083e576040517f90b8ec1800000000000000000000000000000000000000000000000000000000815260040160405180910390fd5b5050610848611301565b50565b6000600860008373ffffffffffffffffffffffffffffffffffffffff1673ffffffffffffffffffffffffffffffffffffffff168152602001908152602001600020549050919050565b61089c61127a565b6108a46112c0565b336108ad610f1f565b600681905550426007819055506108c38161042c565b600960008373ffffffffffffffffffffffffffffffffffffffff1673ffffffffffffffffffffffffffffffffffffffff16815260200190815260200160002081905550600654600a60008373ffffffffffffffffffffffffffffffffffffffff1673ffffffffffffffffffffffffffffffffffffffff168152602001908152602001600020819055506000600960003373ffffffffffffffffffffffffffffffffffffffff1673ffffffffffffffffffffffffffffffffffffffff16815260200190815260200160002054905060008110156109cb576040517fcb6e851c00000000000000000000000000000000000000000000000000000000815260040160405180910390fd5b6000600960003373ffffffffffffffffffffffffffffffffffffffff1673ffffffffffffffffffffffffffffffffffffffff16815260200190815260200160002081905550803373ffffffffffffffffffffffffffffffffffffffff167ffc30cddea38e2bf4d6ea7d3f9ed3b6ad7f176419f4963bd81318067a4aee73fe60405160405180910390a36000600360009054906101000a900473ffffffffffffffffffffffffffffffffffffffff1673ffffffffffffffffffffffffffffffffffffffff1663a9059cbb33846040518363ffffffff1660e01b8152600401610ab3929190611895565b6020604051808303816000875af1158015610ad2573d6000803e3d6000fd5b505050506040513d601f19601f82011682018060405250810190610af691906118ea565b905080610b2f576040517f90b8ec1800000000000000000000000000000000000000000000000000000000815260040160405180910390fd5b505050610b3a611301565b565b610b4461130b565b610b4c611392565b565b6000600160149054906101000a900460ff16905090565b60086020528060005260406000206000915090505481565b600360009054906101000a900473ffffffffffffffffffffffffffffffffffffffff1681565b610bab61130b565b610bb560006113f5565b565b60045481565b6000600554905090565b610bcf61130b565b610bd76114bb565b565b600a6020528060005260406000206000915090505481565b6000600160009054906101000a900473ffffffffffffffffffffffffffffffffffffffff16905090565b610c2361130b565b806004819055507f41d466ebd06fb97e7786086ac8b69b7eb7da798592036251291d34e9791cde0181604051610c59919061160e565b60405180910390a150565b610c6c61127a565b610c746112c0565b33610c7d610f1f565b60068190555042600781905550610c938161042c565b600960008373ffffffffffffffffffffffffffffffffffffffff1673ffffffffffffffffffffffffffffffffffffffff16815260200190815260200160002081905550600654600a60008373ffffffffffffffffffffffffffffffffffffffff1673ffffffffffffffffffffffffffffffffffffffff1681526020019081526020016000208190555060008211610d56576040517f5e85ae7300000000000000000000000000000000000000000000000000000000815260040160405180910390fd5b8160056000828254610d689190611861565b9250508190555081600860003373ffffffffffffffffffffffffffffffffffffffff1673ffffffffffffffffffffffffffffffffffffffff1681526020019081526020016000206000828254610dbe9190611861565b92505081905550813373ffffffffffffffffffffffffffffffffffffffff167f9e71bc8eea02a63969f509818f2dafb9254532904319f9dbda79b67bd34a5f3d60405160405180910390a36000600260009054906101000a900473ffffffffffffffffffffffffffffffffffffffff1673ffffffffffffffffffffffffffffffffffffffff166323b872dd3330866040518463ffffffff1660e01b8152600401610e6a93929190611917565b6020604051808303816000875af1158015610e89573d6000803e3d6000fd5b505050506040513d601f19601f82011682018060405250810190610ead91906118ea565b905080610ee6576040517f90b8ec1800000000000000000000000000000000000000000000000000000000815260040160405180910390fd5b5050610ef0611301565b50565b600260009054906101000a900473ffffffffffffffffffffffffffffffffffffffff1681565b60075481565b60008060055403610f34576006549050610f8b565b600060075442610f44919061178b565b9050600081600454610f5691906117bf565b9050600554670de0b6b3a764000082610f6f91906117bf565b610f799190611830565b600654610f869190611861565b925050505b90565b610f9661127a565b610f9e61151d565b6000600860003373ffffffffffffffffffffffffffffffffffffffff1673ffffffffffffffffffffffffffffffffffffffff1681526020019081526020016000205490506000811161101c576040517f5e85ae7300000000000000000000000000000000000000000000000000000000815260040160405180910390fd5b806005600082825461102e919061178b565b925050819055506000600860003373ffffffffffffffffffffffffffffffffffffffff1673ffffffffffffffffffffffffffffffffffffffff16815260200190815260200160002081905550803373ffffffffffffffffffffffffffffffffffffffff167f23d6711a1d031134a36921253c75aa59e967d38e369ac625992824315e204f2060405160405180910390a36000600260009054906101000a900473ffffffffffffffffffffffffffffffffffffffff1673ffffffffffffffffffffffffffffffffffffffff1663a9059cbb33846040518363ffffffff1660e01b815260040161111d929190611895565b6020604051808303816000875af115801561113c573d6000803e3d6000fd5b505050506040513d601f19601f8201168201806040525081019061116091906118ea565b905080611199576040517f90b8ec1800000000000000000000000000000000000000000000000000000000815260040160405180910390fd5b50506111a3611301565b565b60065481565b6000600960008373ffffffffffffffffffffffffffffffffffffffff1673ffffffffffffffffffffffffffffffffffffffff168152602001908152602001600020549050919050565b6111fc61130b565b600073ffffffffffffffffffffffffffffffffffffffff168173ffffffffffffffffffffffffffffffffffffffff160361126e5760006040517f1e4fbdf70000000000000000000000000000000000000000000000000000000081526004016112659190611741565b60405180910390fd5b611277816113f5565b50565b6002600054036112b6576040517f3ee5aeb500000000000000000000000000000000000000000000000000000000815260040160405180910390fd5b6002600081905550565b6112c8610b4e565b156112ff576040517fd93c066500000000000000000000000000000000000000000000000000000000815260040160405180910390fd5b565b6001600081905550565b61131361155d565b73ffffffffffffffffffffffffffffffffffffffff16611331610bf1565b73ffffffffffffffffffffffffffffffffffffffff16146113905761135461155d565b6040517f118cdaa70000000000000000000000000000000000000000000000000000000081526004016113879190611741565b60405180910390fd5b565b61139a61151d565b6000600160146101000a81548160ff0219169083151502179055507f5db9ee0a495bf2e6ff9c91a7834c1ba4fdd244a5e8aa4e537bd38aeae4b073aa6113de61155d565b6040516113eb9190611741565b60405180910390a1565b6000600160009054906101000a900473ffffffffffffffffffffffffffffffffffffffff16905081600160006101000a81548173ffffffffffffffffffffffffffffffffffffffff021916908373ffffffffffffffffffffffffffffffffffffffff1602179055508173ffffffffffffffffffffffffffffffffffffffff168173ffffffffffffffffffffffffffffffffffffffff167f8be0079c531659141344cd1fd0a4f28419497f9722a3daafe3b4186f6b6457e060405160405180910390a35050565b6114c36112c0565b60018060146101000a81548160ff0219169083151502179055507f62e78cea01bee320cd4e420270b5ea74000d11b0c9f74754ebdbfc544b05a25861150661155d565b6040516115139190611741565b60405180910390a1565b611525610b4e565b61155b576040517f8dfc202b00000000000000000000000000000000000000000000000000000000815260040160405180910390fd5b565b600033905090565b600080fd5b600073ffffffffffffffffffffffffffffffffffffffff82169050919050565b60006115958261156a565b9050919050565b6115a58161158a565b81146115b057600080fd5b50565b6000813590506115c28161159c565b92915050565b6000602082840312156115de576115dd611565565b5b60006115ec848285016115b3565b91505092915050565b6000819050919050565b611608816115f5565b82525050565b600060208201905061162360008301846115ff565b92915050565b611632816115f5565b811461163d57600080fd5b50565b60008135905061164f81611629565b92915050565b60006020828403121561166b5761166a611565565b5b600061167984828501611640565b91505092915050565b60008115159050919050565b61169781611682565b82525050565b60006020820190506116b2600083018461168e565b92915050565b6000819050919050565b60006116dd6116d86116d38461156a565b6116b8565b61156a565b9050919050565b60006116ef826116c2565b9050919050565b6000611701826116e4565b9050919050565b611711816116f6565b82525050565b600060208201905061172c6000830184611708565b92915050565b61173b8161158a565b82525050565b60006020820190506117566000830184611732565b92915050565b7f4e487b7100000000000000000000000000000000000000000000000000000000600052601160045260246000fd5b6000611796826115f5565b91506117a1836115f5565b92508282039050818111156117b9576117b861175c565b5b92915050565b60006117ca826115f5565b91506117d5836115f5565b92508282026117e3816115f5565b915082820484148315176117fa576117f961175c565b5b5092915050565b7f4e487b7100000000000000000000000000000000000000000000000000000000600052601260045260246000fd5b600061183b826115f5565b9150611846836115f5565b92508261185657611855611801565b5b828204905092915050565b600061186c826115f5565b9150611877836115f5565b925082820190508082111561188f5761188e61175c565b5b92915050565b60006040820190506118aa6000830185611732565b6118b760208301846115ff565b9392505050565b6118c781611682565b81146118d257600080fd5b50565b6000815190506118e4816118be565b92915050565b600060208284031215611900576118ff611565565b5b600061190e848285016118d5565b91505092915050565b600060608201905061192c6000830186611732565b6119396020830185611732565b61194660408301846115ff565b94935050505056fea26469706673582212208e6e4ad281049431ec3ef2e6bfa7d8b7c9bd8a38a9b06074ec9386708041ffbd64736f6c63430008180033",
    "linkReferences": {},
    "deployedLinkReferences": {}
}