{
  "_format": "hh-sol-artifact-1",
  "contractName": "AMM",
  "sourceName": "contracts/AMM.sol",
  "abi": [
    {
      "inputs": [
        {
          "internalType": "address",
          "name": "_token1",
          "type": "address"
        },
        {
          "internalType": "address",
          "name": "_token2",
          "type": "address"
        }
      ],
      "stateMutability": "nonpayable",
      "type": "constructor"
    },
    {
      "inputs": [],
      "name": "AmountMustBeGreaterThanZero",
      "type": "error"
    },
    {
      "inputs": [],
      "name": "InsufficientLiquidity",
      "type": "error"
    },
    {
      "inputs": [],
      "name": "InvalidAddress",
      "type": "error"
    },
    {
      "inputs": [],
      "name": "InvalidAmounts",
      "type": "error"
    },
    {
      "inputs": [],
      "name": "InvalidReserves",
      "type": "error"
    },
    {
      "inputs": [
        {
          "internalType": "address",
          "name": "owner",
          "type": "address"
        }
      ],
      "name": "OwnableInvalidOwner",
      "type": "error"
    },
    {
      "inputs": [
        {
          "internalType": "address",
          "name": "account",
          "type": "address"
        }
      ],
      "name": "OwnableUnauthorizedAccount",
      "type": "error"
    },
    {
      "inputs": [],
      "name": "ReentrancyGuardReentrantCall",
      "type": "error"
    },
    {
      "inputs": [],
      "name": "SlippageExceeded",
      "type": "error"
    },
    {
      "anonymous": false,
      "inputs": [
        {
          "indexed": true,
          "internalType": "address",
          "name": "provider",
          "type": "address"
        },
        {
          "indexed": true,
          "internalType": "uint256",
          "name": "amount1",
          "type": "uint256"
        },
        {
          "indexed": true,
          "internalType": "uint256",
          "name": "amount2",
          "type": "uint256"
        }
      ],
      "name": "LiquidityProvided",
      "type": "event"
    },
    {
      "anonymous": false,
      "inputs": [
        {
          "indexed": true,
          "internalType": "address",
          "name": "provider",
          "type": "address"
        },
        {
          "indexed": true,
          "internalType": "uint256",
          "name": "amount1",
          "type": "uint256"
        },
        {
          "indexed": true,
          "internalType": "uint256",
          "name": "amount2",
          "type": "uint256"
        }
      ],
      "name": "LiquidityRemoved",
      "type": "event"
    },
    {
      "anonymous": false,
      "inputs": [
        {
          "indexed": true,
          "internalType": "address",
          "name": "previousOwner",
          "type": "address"
        },
        {
          "indexed": true,
          "internalType": "address",
          "name": "newOwner",
          "type": "address"
        }
      ],
      "name": "OwnershipTransferred",
      "type": "event"
    },
    {
      "anonymous": false,
      "inputs": [
        {
          "indexed": true,
          "internalType": "address",
          "name": "swapper",
          "type": "address"
        },
        {
          "indexed": true,
          "internalType": "address",
          "name": "tokenIn",
          "type": "address"
        },
        {
          "indexed": true,
          "internalType": "address",
          "name": "tokenOut",
          "type": "address"
        },
        {
          "indexed": false,
          "internalType": "uint256",
          "name": "amountIn",
          "type": "uint256"
        },
        {
          "indexed": false,
          "internalType": "uint256",
          "name": "amountOut",
          "type": "uint256"
        }
      ],
      "name": "Swapped",
      "type": "event"
    },
    {
      "inputs": [],
      "name": "getCurrentPrices",
      "outputs": [
        {
          "internalType": "uint256",
          "name": "priceToken1InToken2",
          "type": "uint256"
        },
        {
          "internalType": "uint256",
          "name": "priceToken2InToken1",
          "type": "uint256"
        }
      ],
      "stateMutability": "view",
      "type": "function"
    },
    {
      "inputs": [
        {
          "internalType": "address",
          "name": "tokenIn",
          "type": "address"
        },
        {
          "internalType": "uint256",
          "name": "amount",
          "type": "uint256"
        }
      ],
      "name": "getRequiredTokenAmount",
      "outputs": [
        {
          "internalType": "uint256",
          "name": "amountRequired",
          "type": "uint256"
        }
      ],
      "stateMutability": "view",
      "type": "function"
    },
    {
      "inputs": [
        {
          "internalType": "address",
          "name": "tokenIn",
          "type": "address"
        },
        {
          "internalType": "uint256",
          "name": "amountIn",
          "type": "uint256"
        }
      ],
      "name": "getSwapDetails",
      "outputs": [
        {
          "internalType": "uint256",
          "name": "amountOut",
          "type": "uint256"
        },
        {
          "internalType": "uint256",
          "name": "fee",
          "type": "uint256"
        },
        {
          "internalType": "uint256",
          "name": "newPrice",
          "type": "uint256"
        }
      ],
      "stateMutability": "view",
      "type": "function"
    },
    {
      "inputs": [
        {
          "internalType": "address",
          "name": "",
          "type": "address"
        }
      ],
      "name": "liquidity",
      "outputs": [
        {
          "internalType": "uint256",
          "name": "",
          "type": "uint256"
        }
      ],
      "stateMutability": "view",
      "type": "function"
    },
    {
      "inputs": [],
      "name": "owner",
      "outputs": [
        {
          "internalType": "address",
          "name": "",
          "type": "address"
        }
      ],
      "stateMutability": "view",
      "type": "function"
    },
    {
      "inputs": [
        {
          "internalType": "address",
          "name": "tokenIn",
          "type": "address"
        },
        {
          "internalType": "uint256",
          "name": "amountIn",
          "type": "uint256"
        }
      ],
      "name": "provideLiquidity",
      "outputs": [],
      "stateMutability": "nonpayable",
      "type": "function"
    },
    {
      "inputs": [
        {
          "internalType": "uint256",
          "name": "liquidityAmount",
          "type": "uint256"
        }
      ],
      "name": "removeLiquidity",
      "outputs": [],
      "stateMutability": "nonpayable",
      "type": "function"
    },
    {
      "inputs": [],
      "name": "renounceOwnership",
      "outputs": [],
      "stateMutability": "nonpayable",
      "type": "function"
    },
    {
      "inputs": [
        {
          "internalType": "address",
          "name": "tokenIn",
          "type": "address"
        },
        {
          "internalType": "uint256",
          "name": "amountIn",
          "type": "uint256"
        },
        {
          "internalType": "uint256",
          "name": "minAmountOut",
          "type": "uint256"
        }
      ],
      "name": "swap",
      "outputs": [
        {
          "internalType": "uint256",
          "name": "amountOut",
          "type": "uint256"
        },
        {
          "internalType": "uint256",
          "name": "fee",
          "type": "uint256"
        }
      ],
      "stateMutability": "nonpayable",
      "type": "function"
    },
    {
      "inputs": [],
      "name": "swapFee",
      "outputs": [
        {
          "internalType": "uint256",
          "name": "",
          "type": "uint256"
        }
      ],
      "stateMutability": "view",
      "type": "function"
    },
    {
      "inputs": [],
      "name": "token1",
      "outputs": [
        {
          "internalType": "contract IERC20",
          "name": "",
          "type": "address"
        }
      ],
      "stateMutability": "view",
      "type": "function"
    },
    {
      "inputs": [],
      "name": "token2",
      "outputs": [
        {
          "internalType": "contract IERC20",
          "name": "",
          "type": "address"
        }
      ],
      "stateMutability": "view",
      "type": "function"
    },
    {
      "inputs": [],
      "name": "totalLiquidity",
      "outputs": [
        {
          "internalType": "uint256",
          "name": "",
          "type": "uint256"
        }
      ],
      "stateMutability": "view",
      "type": "function"
    },
    {
      "inputs": [
        {
          "internalType": "address",
          "name": "newOwner",
          "type": "address"
        }
      ],
      "name": "transferOwnership",
      "outputs": [],
      "stateMutability": "nonpayable",
      "type": "function"
    }
  ],
  "bytecode": "0x60806040523480156200001157600080fd5b506040516200201c3803806200201c833981810160405281019062000037919062000290565b336001600081905550600073ffffffffffffffffffffffffffffffffffffffff168173ffffffffffffffffffffffffffffffffffffffff1603620000b55760006040517f1e4fbdf7000000000000000000000000000000000000000000000000000000008152600401620000ac9190620002e8565b60405180910390fd5b620000c6816200016060201b60201c565b5081600260006101000a81548173ffffffffffffffffffffffffffffffffffffffff021916908373ffffffffffffffffffffffffffffffffffffffff16021790555080600360006101000a81548173ffffffffffffffffffffffffffffffffffffffff021916908373ffffffffffffffffffffffffffffffffffffffff160217905550670de0b6b3a7640000600681905550505062000305565b6000600160009054906101000a900473ffffffffffffffffffffffffffffffffffffffff16905081600160006101000a81548173ffffffffffffffffffffffffffffffffffffffff021916908373ffffffffffffffffffffffffffffffffffffffff1602179055508173ffffffffffffffffffffffffffffffffffffffff168173ffffffffffffffffffffffffffffffffffffffff167f8be0079c531659141344cd1fd0a4f28419497f9722a3daafe3b4186f6b6457e060405160405180910390a35050565b600080fd5b600073ffffffffffffffffffffffffffffffffffffffff82169050919050565b600062000258826200022b565b9050919050565b6200026a816200024b565b81146200027657600080fd5b50565b6000815190506200028a816200025f565b92915050565b60008060408385031215620002aa57620002a962000226565b5b6000620002ba8582860162000279565b9250506020620002cd8582860162000279565b9150509250929050565b620002e2816200024b565b82525050565b6000602082019050620002ff6000830184620002d7565b92915050565b611d0780620003156000396000f3fe608060405234801561001057600080fd5b50600436106100ea5760003560e01c80638da5cb5b1161008c578063b8c876b111610066578063b8c876b114610229578063d21220a714610259578063df51abef14610277578063f2fde38b146102a9576100ea565b80638da5cb5b146101be5780639c8f9f23146101dc5780639f1d0f59146101f8576100ea565b80635fea6120116100c85780635fea612014610149578063715018a6146101655780637bce97ee1461016f578063852d0d6e1461019f576100ea565b806315770f92146100ef57806325be124e1461010d57806354cf2aeb1461012b575b600080fd5b6100f76102c5565b60405161010491906117f6565b60405180910390f35b6101156102cb565b6040516101229190611890565b60405180910390f35b6101336102f1565b60405161014091906117f6565b60405180910390f35b610163600480360381019061015e919061191a565b6102f7565b005b61016d61067b565b005b6101896004803603810190610184919061191a565b61068f565b60405161019691906117f6565b60405180910390f35b6101a76108ea565b6040516101b592919061195a565b60405180910390f35b6101c6610abd565b6040516101d39190611992565b60405180910390f35b6101f660048036038101906101f191906119ad565b610ae7565b005b610212600480360381019061020d91906119da565b610f17565b60405161022092919061195a565b60405180910390f35b610243600480360381019061023e9190611a2d565b611195565b60405161025091906117f6565b60405180910390f35b6102616111ad565b60405161026e9190611890565b60405180910390f35b610291600480360381019061028c919061191a565b6111d3565b6040516102a093929190611a5a565b60405180910390f35b6102c360048036038101906102be9190611a2d565b6113d3565b005b60045481565b600360009054906101000a900473ffffffffffffffffffffffffffffffffffffffff1681565b60065481565b6102ff611459565b806000811161033a576040517f5e85ae7300000000000000000000000000000000000000000000000000000000815260040160405180910390fd5b6000806103468561149f565b9150915060008273ffffffffffffffffffffffffffffffffffffffff166370a08231306040518263ffffffff1660e01b81526004016103859190611992565b602060405180830381865afa1580156103a2573d6000803e3d6000fd5b505050506040513d601f19601f820116820180604052508101906103c69190611aa6565b905060008273ffffffffffffffffffffffffffffffffffffffff166370a08231306040518263ffffffff1660e01b81526004016104039190611992565b602060405180830381865afa158015610420573d6000803e3d6000fd5b505050506040513d601f19601f820116820180604052508101906104449190611aa6565b90506000808314806104565750600082145b1561046357869050610470565b61046d888861068f565b90505b8473ffffffffffffffffffffffffffffffffffffffff166323b872dd33308a6040518463ffffffff1660e01b81526004016104ad93929190611ad3565b6020604051808303816000875af11580156104cc573d6000803e3d6000fd5b505050506040513d601f19601f820116820180604052508101906104f09190611b42565b508373ffffffffffffffffffffffffffffffffffffffff166323b872dd3330846040518463ffffffff1660e01b815260040161052e93929190611ad3565b6020604051808303816000875af115801561054d573d6000803e3d6000fd5b505050506040513d601f19601f820116820180604052508101906105719190611b42565b506000806004540361059857610591828961058c9190611b9e565b611621565b90506105b4565b83600454896105a79190611b9e565b6105b19190611c0f565b90505b80600560003373ffffffffffffffffffffffffffffffffffffffff1673ffffffffffffffffffffffffffffffffffffffff16815260200190815260200160002060008282546106039190611c40565b92505081905550806004600082825461061c9190611c40565b9250508190555081883373ffffffffffffffffffffffffffffffffffffffff167f4da600077ef1c533c6fc47d886b74f8eb10195c987edfc00c907a2e184a0279460405160405180910390a45050505050505061067761167e565b5050565b610683611688565b61068d600061170f565b565b600081600081116106cc576040517f5e85ae7300000000000000000000000000000000000000000000000000000000815260040160405180910390fd5b6000600260009054906101000a900473ffffffffffffffffffffffffffffffffffffffff1673ffffffffffffffffffffffffffffffffffffffff166370a08231306040518263ffffffff1660e01b81526004016107299190611992565b602060405180830381865afa158015610746573d6000803e3d6000fd5b505050506040513d601f19601f8201168201806040525081019061076a9190611aa6565b90506000600360009054906101000a900473ffffffffffffffffffffffffffffffffffffffff1673ffffffffffffffffffffffffffffffffffffffff166370a08231306040518263ffffffff1660e01b81526004016107c99190611992565b602060405180830381865afa1580156107e6573d6000803e3d6000fd5b505050506040513d601f19601f8201168201806040525081019061080a9190611aa6565b905060008211158061081d575060008111155b15610854576040517f7b9c891600000000000000000000000000000000000000000000000000000000815260040160405180910390fd5b600260009054906101000a900473ffffffffffffffffffffffffffffffffffffffff1673ffffffffffffffffffffffffffffffffffffffff168673ffffffffffffffffffffffffffffffffffffffff16036108c7578181866108b69190611b9e565b6108c09190611c0f565b93506108e1565b8082866108d49190611b9e565b6108de9190611c0f565b93505b50505092915050565b6000806000600260009054906101000a900473ffffffffffffffffffffffffffffffffffffffff1673ffffffffffffffffffffffffffffffffffffffff166370a08231306040518263ffffffff1660e01b815260040161094a9190611992565b602060405180830381865afa158015610967573d6000803e3d6000fd5b505050506040513d601f19601f8201168201806040525081019061098b9190611aa6565b90506000600360009054906101000a900473ffffffffffffffffffffffffffffffffffffffff1673ffffffffffffffffffffffffffffffffffffffff166370a08231306040518263ffffffff1660e01b81526004016109ea9190611992565b602060405180830381865afa158015610a07573d6000803e3d6000fd5b505050506040513d601f19601f82011682018060405250810190610a2b9190611aa6565b9050600082111580610a3e575060008111155b15610a75576040517f7b9c891600000000000000000000000000000000000000000000000000000000815260040160405180910390fd5b81670de0b6b3a764000082610a8a9190611b9e565b610a949190611c0f565b935080670de0b6b3a764000083610aab9190611b9e565b610ab59190611c0f565b925050509091565b6000600160009054906101000a900473ffffffffffffffffffffffffffffffffffffffff16905090565b610aef611459565b8060008111610b2a576040517f5e85ae7300000000000000000000000000000000000000000000000000000000815260040160405180910390fd5b81600560003373ffffffffffffffffffffffffffffffffffffffff1673ffffffffffffffffffffffffffffffffffffffff168152602001908152602001600020541015610ba3576040517fbb55fd2700000000000000000000000000000000000000000000000000000000815260040160405180910390fd5b6000600454600260009054906101000a900473ffffffffffffffffffffffffffffffffffffffff1673ffffffffffffffffffffffffffffffffffffffff166370a08231306040518263ffffffff1660e01b8152600401610c039190611992565b602060405180830381865afa158015610c20573d6000803e3d6000fd5b505050506040513d601f19601f82011682018060405250810190610c449190611aa6565b84610c4f9190611b9e565b610c599190611c0f565b90506000600454600360009054906101000a900473ffffffffffffffffffffffffffffffffffffffff1673ffffffffffffffffffffffffffffffffffffffff166370a08231306040518263ffffffff1660e01b8152600401610cbb9190611992565b602060405180830381865afa158015610cd8573d6000803e3d6000fd5b505050506040513d601f19601f82011682018060405250810190610cfc9190611aa6565b85610d079190611b9e565b610d119190611c0f565b905083600560003373ffffffffffffffffffffffffffffffffffffffff1673ffffffffffffffffffffffffffffffffffffffff1681526020019081526020016000206000828254610d629190611c74565b925050819055508360046000828254610d7b9190611c74565b92505081905550600260009054906101000a900473ffffffffffffffffffffffffffffffffffffffff1673ffffffffffffffffffffffffffffffffffffffff1663a9059cbb33846040518363ffffffff1660e01b8152600401610ddf929190611ca8565b6020604051808303816000875af1158015610dfe573d6000803e3d6000fd5b505050506040513d601f19601f82011682018060405250810190610e229190611b42565b50600360009054906101000a900473ffffffffffffffffffffffffffffffffffffffff1673ffffffffffffffffffffffffffffffffffffffff1663a9059cbb33836040518363ffffffff1660e01b8152600401610e80929190611ca8565b6020604051808303816000875af1158015610e9f573d6000803e3d6000fd5b505050506040513d601f19601f82011682018060405250810190610ec39190611b42565b5080823373ffffffffffffffffffffffffffffffffffffffff167f96cd817c6329656790ef8fba7675405193677d39619571282f5e21f3a98cd05960405160405180910390a4505050610f1461167e565b50565b600080610f22611459565b8383600082111580610f35575060008111155b15610f6c576040517f5e85ae7300000000000000000000000000000000000000000000000000000000815260040160405180910390fd5b85851115610fa6576040517fd856fc5a00000000000000000000000000000000000000000000000000000000815260040160405180910390fd5b610fb087876111d3565b50809450819550505084841015610ff3576040517f8199f5f300000000000000000000000000000000000000000000000000000000815260040160405180910390fd5b600080610fff8961149f565b915091508173ffffffffffffffffffffffffffffffffffffffff166323b872dd33308b6040518463ffffffff1660e01b815260040161104093929190611ad3565b6020604051808303816000875af115801561105f573d6000803e3d6000fd5b505050506040513d601f19601f820116820180604052508101906110839190611b42565b508073ffffffffffffffffffffffffffffffffffffffff1663a9059cbb33886040518363ffffffff1660e01b81526004016110bf929190611ca8565b6020604051808303816000875af11580156110de573d6000803e3d6000fd5b505050506040513d601f19601f820116820180604052508101906111029190611b42565b508073ffffffffffffffffffffffffffffffffffffffff168973ffffffffffffffffffffffffffffffffffffffff163373ffffffffffffffffffffffffffffffffffffffff167f6782190c91d4a7e8ad2a867deed6ec0a970cab8ff137ae2bd4abd92b3810f4d38b8a60405161117992919061195a565b60405180910390a45050505061118d61167e565b935093915050565b60056020528060005260406000206000915090505481565b600260009054906101000a900473ffffffffffffffffffffffffffffffffffffffff1681565b60008060008360008111611213576040517f5e85ae7300000000000000000000000000000000000000000000000000000000815260040160405180910390fd5b60008061121f8861149f565b9150915060008273ffffffffffffffffffffffffffffffffffffffff166370a08231306040518263ffffffff1660e01b815260040161125e9190611992565b602060405180830381865afa15801561127b573d6000803e3d6000fd5b505050506040513d601f19601f8201168201806040525081019061129f9190611aa6565b905060008273ffffffffffffffffffffffffffffffffffffffff166370a08231306040518263ffffffff1660e01b81526004016112dc9190611992565b602060405180830381865afa1580156112f9573d6000803e3d6000fd5b505050506040513d601f19601f8201168201806040525081019061131d9190611aa6565b905068056bc75e2d631000006006548a6113379190611b9e565b6113419190611c0f565b96506000878a6113519190611c74565b9050600082826113619190611b9e565b9050600082856113719190611c40565b9050808261137f9190611c0f565b9a5060008c8661138f9190611c40565b905060008c8661139f9190611c74565b905080670de0b6b3a7640000836113b69190611b9e565b6113c09190611c0f565b9a50505050505050505050509250925092565b6113db611688565b600073ffffffffffffffffffffffffffffffffffffffff168173ffffffffffffffffffffffffffffffffffffffff160361144d5760006040517f1e4fbdf70000000000000000000000000000000000000000000000000000000081526004016114449190611992565b60405180910390fd5b6114568161170f565b50565b600260005403611495576040517f3ee5aeb500000000000000000000000000000000000000000000000000000000815260040160405180910390fd5b6002600081905550565b600080600260009054906101000a900473ffffffffffffffffffffffffffffffffffffffff1673ffffffffffffffffffffffffffffffffffffffff168373ffffffffffffffffffffffffffffffffffffffff160361154657600260009054906101000a900473ffffffffffffffffffffffffffffffffffffffff16600360009054906101000a900473ffffffffffffffffffffffffffffffffffffffff169150915061161c565b600360009054906101000a900473ffffffffffffffffffffffffffffffffffffffff1673ffffffffffffffffffffffffffffffffffffffff168373ffffffffffffffffffffffffffffffffffffffff16036115ea57600360009054906101000a900473ffffffffffffffffffffffffffffffffffffffff16600260009054906101000a900473ffffffffffffffffffffffffffffffffffffffff169150915061161c565b6040517fe6c4247b00000000000000000000000000000000000000000000000000000000815260040160405180910390fd5b915091565b60008060026001846116339190611c40565b61163d9190611c0f565b90508291505b8181101561167857809150600281828561165d9190611c0f565b6116679190611c40565b6116719190611c0f565b9050611643565b50919050565b6001600081905550565b6116906117d5565b73ffffffffffffffffffffffffffffffffffffffff166116ae610abd565b73ffffffffffffffffffffffffffffffffffffffff161461170d576116d16117d5565b6040517f118cdaa70000000000000000000000000000000000000000000000000000000081526004016117049190611992565b60405180910390fd5b565b6000600160009054906101000a900473ffffffffffffffffffffffffffffffffffffffff16905081600160006101000a81548173ffffffffffffffffffffffffffffffffffffffff021916908373ffffffffffffffffffffffffffffffffffffffff1602179055508173ffffffffffffffffffffffffffffffffffffffff168173ffffffffffffffffffffffffffffffffffffffff167f8be0079c531659141344cd1fd0a4f28419497f9722a3daafe3b4186f6b6457e060405160405180910390a35050565b600033905090565b6000819050919050565b6117f0816117dd565b82525050565b600060208201905061180b60008301846117e7565b92915050565b600073ffffffffffffffffffffffffffffffffffffffff82169050919050565b6000819050919050565b600061185661185161184c84611811565b611831565b611811565b9050919050565b60006118688261183b565b9050919050565b600061187a8261185d565b9050919050565b61188a8161186f565b82525050565b60006020820190506118a56000830184611881565b92915050565b600080fd5b60006118bb82611811565b9050919050565b6118cb816118b0565b81146118d657600080fd5b50565b6000813590506118e8816118c2565b92915050565b6118f7816117dd565b811461190257600080fd5b50565b600081359050611914816118ee565b92915050565b60008060408385031215611931576119306118ab565b5b600061193f858286016118d9565b925050602061195085828601611905565b9150509250929050565b600060408201905061196f60008301856117e7565b61197c60208301846117e7565b9392505050565b61198c816118b0565b82525050565b60006020820190506119a76000830184611983565b92915050565b6000602082840312156119c3576119c26118ab565b5b60006119d184828501611905565b91505092915050565b6000806000606084860312156119f3576119f26118ab565b5b6000611a01868287016118d9565b9350506020611a1286828701611905565b9250506040611a2386828701611905565b9150509250925092565b600060208284031215611a4357611a426118ab565b5b6000611a51848285016118d9565b91505092915050565b6000606082019050611a6f60008301866117e7565b611a7c60208301856117e7565b611a8960408301846117e7565b949350505050565b600081519050611aa0816118ee565b92915050565b600060208284031215611abc57611abb6118ab565b5b6000611aca84828501611a91565b91505092915050565b6000606082019050611ae86000830186611983565b611af56020830185611983565b611b0260408301846117e7565b949350505050565b60008115159050919050565b611b1f81611b0a565b8114611b2a57600080fd5b50565b600081519050611b3c81611b16565b92915050565b600060208284031215611b5857611b576118ab565b5b6000611b6684828501611b2d565b91505092915050565b7f4e487b7100000000000000000000000000000000000000000000000000000000600052601160045260246000fd5b6000611ba9826117dd565b9150611bb4836117dd565b9250828202611bc2816117dd565b91508282048414831517611bd957611bd8611b6f565b5b5092915050565b7f4e487b7100000000000000000000000000000000000000000000000000000000600052601260045260246000fd5b6000611c1a826117dd565b9150611c25836117dd565b925082611c3557611c34611be0565b5b828204905092915050565b6000611c4b826117dd565b9150611c56836117dd565b9250828201905080821115611c6e57611c6d611b6f565b5b92915050565b6000611c7f826117dd565b9150611c8a836117dd565b9250828203905081811115611ca257611ca1611b6f565b5b92915050565b6000604082019050611cbd6000830185611983565b611cca60208301846117e7565b939250505056fea26469706673582212200670067e7345af9eb7fadcaba32322a5ebf93be8dfd6e552667fcd4df30974af64736f6c63430008180033",
  "linkReferences": {},
  "deployedLinkReferences": {}
}