{
  "_format": "hh-sol-artifact-1",
  "contractName": "AMM",
  "sourceName": "contracts/AMM.sol",
  "abi": [
    {
      "inputs": [
        {
          "internalType": "address",
          "name": "_token1",
          "type": "address"
        },
        {
          "internalType": "address",
          "name": "_token2",
          "type": "address"
        }
      ],
      "stateMutability": "nonpayable",
      "type": "constructor"
    },
    {
      "inputs": [],
      "name": "AmountMustBeGreaterThanZero",
      "type": "error"
    },
    {
      "inputs": [],
      "name": "InsufficientLiquidity",
      "type": "error"
    },
    {
      "inputs": [],
      "name": "InvalidAddress",
      "type": "error"
    },
    {
      "inputs": [],
      "name": "InvalidAmounts",
      "type": "error"
    },
    {
      "inputs": [],
      "name": "InvalidReserves",
      "type": "error"
    },
    {
      "inputs": [
        {
          "internalType": "address",
          "name": "owner",
          "type": "address"
        }
      ],
      "name": "OwnableInvalidOwner",
      "type": "error"
    },
    {
      "inputs": [
        {
          "internalType": "address",
          "name": "account",
          "type": "address"
        }
      ],
      "name": "OwnableUnauthorizedAccount",
      "type": "error"
    },
    {
      "inputs": [],
      "name": "PoolRatioMismatch",
      "type": "error"
    },
    {
      "inputs": [],
      "name": "ReentrancyGuardReentrantCall",
      "type": "error"
    },
    {
      "inputs": [],
      "name": "SlippageExceeded",
      "type": "error"
    },
    {
      "anonymous": false,
      "inputs": [
        {
          "indexed": true,
          "internalType": "address",
          "name": "provider",
          "type": "address"
        },
        {
          "indexed": true,
          "internalType": "uint256",
          "name": "amount1",
          "type": "uint256"
        },
        {
          "indexed": true,
          "internalType": "uint256",
          "name": "amount2",
          "type": "uint256"
        }
      ],
      "name": "LiquidityProvided",
      "type": "event"
    },
    {
      "anonymous": false,
      "inputs": [
        {
          "indexed": true,
          "internalType": "address",
          "name": "provider",
          "type": "address"
        },
        {
          "indexed": true,
          "internalType": "uint256",
          "name": "amount1",
          "type": "uint256"
        },
        {
          "indexed": true,
          "internalType": "uint256",
          "name": "amount2",
          "type": "uint256"
        }
      ],
      "name": "LiquidityRemoved",
      "type": "event"
    },
    {
      "anonymous": false,
      "inputs": [
        {
          "indexed": true,
          "internalType": "address",
          "name": "previousOwner",
          "type": "address"
        },
        {
          "indexed": true,
          "internalType": "address",
          "name": "newOwner",
          "type": "address"
        }
      ],
      "name": "OwnershipTransferred",
      "type": "event"
    },
    {
      "anonymous": false,
      "inputs": [
        {
          "indexed": true,
          "internalType": "address",
          "name": "swapper",
          "type": "address"
        },
        {
          "indexed": true,
          "internalType": "address",
          "name": "tokenIn",
          "type": "address"
        },
        {
          "indexed": true,
          "internalType": "address",
          "name": "tokenOut",
          "type": "address"
        },
        {
          "indexed": false,
          "internalType": "uint256",
          "name": "amountIn",
          "type": "uint256"
        },
        {
          "indexed": false,
          "internalType": "uint256",
          "name": "amountOut",
          "type": "uint256"
        }
      ],
      "name": "Swapped",
      "type": "event"
    },
    {
      "inputs": [],
      "name": "getCurrentPrices",
      "outputs": [
        {
          "internalType": "uint256",
          "name": "priceToken1InToken2",
          "type": "uint256"
        },
        {
          "internalType": "uint256",
          "name": "priceToken2InToken1",
          "type": "uint256"
        }
      ],
      "stateMutability": "view",
      "type": "function"
    },
    {
      "inputs": [
        {
          "internalType": "address",
          "name": "tokenIn",
          "type": "address"
        },
        {
          "internalType": "uint256",
          "name": "amount",
          "type": "uint256"
        }
      ],
      "name": "getRequiredTokenAmount",
      "outputs": [
        {
          "internalType": "uint256",
          "name": "amountRequired",
          "type": "uint256"
        }
      ],
      "stateMutability": "view",
      "type": "function"
    },
    {
      "inputs": [
        {
          "internalType": "address",
          "name": "tokenIn",
          "type": "address"
        },
        {
          "internalType": "uint256",
          "name": "amountIn",
          "type": "uint256"
        }
      ],
      "name": "getSwapDetails",
      "outputs": [
        {
          "internalType": "uint256",
          "name": "amountOut",
          "type": "uint256"
        },
        {
          "internalType": "uint256",
          "name": "fee",
          "type": "uint256"
        },
        {
          "internalType": "uint256",
          "name": "newPrice",
          "type": "uint256"
        }
      ],
      "stateMutability": "view",
      "type": "function"
    },
    {
      "inputs": [
        {
          "internalType": "address",
          "name": "",
          "type": "address"
        }
      ],
      "name": "liquidity",
      "outputs": [
        {
          "internalType": "uint256",
          "name": "",
          "type": "uint256"
        }
      ],
      "stateMutability": "view",
      "type": "function"
    },
    {
      "inputs": [],
      "name": "owner",
      "outputs": [
        {
          "internalType": "address",
          "name": "",
          "type": "address"
        }
      ],
      "stateMutability": "view",
      "type": "function"
    },
    {
      "inputs": [
        {
          "internalType": "uint256",
          "name": "amount1",
          "type": "uint256"
        },
        {
          "internalType": "uint256",
          "name": "amount2",
          "type": "uint256"
        }
      ],
      "name": "provideLiquidity",
      "outputs": [],
      "stateMutability": "nonpayable",
      "type": "function"
    },
    {
      "inputs": [
        {
          "internalType": "uint256",
          "name": "liquidityAmount",
          "type": "uint256"
        }
      ],
      "name": "removeLiquidity",
      "outputs": [],
      "stateMutability": "nonpayable",
      "type": "function"
    },
    {
      "inputs": [],
      "name": "renounceOwnership",
      "outputs": [],
      "stateMutability": "nonpayable",
      "type": "function"
    },
    {
      "inputs": [
        {
          "internalType": "address",
          "name": "tokenIn",
          "type": "address"
        },
        {
          "internalType": "uint256",
          "name": "amountIn",
          "type": "uint256"
        },
        {
          "internalType": "uint256",
          "name": "minAmountOut",
          "type": "uint256"
        }
      ],
      "name": "swap",
      "outputs": [
        {
          "internalType": "uint256",
          "name": "amountOut",
          "type": "uint256"
        },
        {
          "internalType": "uint256",
          "name": "fee",
          "type": "uint256"
        }
      ],
      "stateMutability": "nonpayable",
      "type": "function"
    },
    {
      "inputs": [],
      "name": "swapFee",
      "outputs": [
        {
          "internalType": "uint256",
          "name": "",
          "type": "uint256"
        }
      ],
      "stateMutability": "view",
      "type": "function"
    },
    {
      "inputs": [],
      "name": "token1",
      "outputs": [
        {
          "internalType": "contract IERC20",
          "name": "",
          "type": "address"
        }
      ],
      "stateMutability": "view",
      "type": "function"
    },
    {
      "inputs": [],
      "name": "token2",
      "outputs": [
        {
          "internalType": "contract IERC20",
          "name": "",
          "type": "address"
        }
      ],
      "stateMutability": "view",
      "type": "function"
    },
    {
      "inputs": [],
      "name": "totalLiquidity",
      "outputs": [
        {
          "internalType": "uint256",
          "name": "",
          "type": "uint256"
        }
      ],
      "stateMutability": "view",
      "type": "function"
    },
    {
      "inputs": [
        {
          "internalType": "address",
          "name": "newOwner",
          "type": "address"
        }
      ],
      "name": "transferOwnership",
      "outputs": [],
      "stateMutability": "nonpayable",
      "type": "function"
    }
  ],
  "bytecode": "0x60806040523480156200001157600080fd5b506040516200211038038062002110833981810160405281019062000037919062000290565b336001600081905550600073ffffffffffffffffffffffffffffffffffffffff168173ffffffffffffffffffffffffffffffffffffffff1603620000b55760006040517f1e4fbdf7000000000000000000000000000000000000000000000000000000008152600401620000ac9190620002e8565b60405180910390fd5b620000c6816200016060201b60201c565b5081600260006101000a81548173ffffffffffffffffffffffffffffffffffffffff021916908373ffffffffffffffffffffffffffffffffffffffff16021790555080600360006101000a81548173ffffffffffffffffffffffffffffffffffffffff021916908373ffffffffffffffffffffffffffffffffffffffff160217905550670de0b6b3a7640000600681905550505062000305565b6000600160009054906101000a900473ffffffffffffffffffffffffffffffffffffffff16905081600160006101000a81548173ffffffffffffffffffffffffffffffffffffffff021916908373ffffffffffffffffffffffffffffffffffffffff1602179055508173ffffffffffffffffffffffffffffffffffffffff168173ffffffffffffffffffffffffffffffffffffffff167f8be0079c531659141344cd1fd0a4f28419497f9722a3daafe3b4186f6b6457e060405160405180910390a35050565b600080fd5b600073ffffffffffffffffffffffffffffffffffffffff82169050919050565b600062000258826200022b565b9050919050565b6200026a816200024b565b81146200027657600080fd5b50565b6000815190506200028a816200025f565b92915050565b60008060408385031215620002aa57620002a962000226565b5b6000620002ba8582860162000279565b9250506020620002cd8582860162000279565b9150509250929050565b620002e2816200024b565b82525050565b6000602082019050620002ff6000830184620002d7565b92915050565b611dfb80620003156000396000f3fe608060405234801561001057600080fd5b50600436106100ea5760003560e01c80638da5cb5b1161008c578063b8c876b111610066578063b8c876b114610229578063d21220a714610259578063df51abef14610277578063f2fde38b146102a9576100ea565b80638da5cb5b146101be5780639c8f9f23146101dc5780639f1d0f59146101f8576100ea565b8063715018a6116100c8578063715018a6146101495780637a16af7f146101535780637bce97ee1461016f578063852d0d6e1461019f576100ea565b806315770f92146100ef57806325be124e1461010d57806354cf2aeb1461012b575b600080fd5b6100f76102c5565b60405161010491906118aa565b60405180910390f35b6101156102cb565b6040516101229190611944565b60405180910390f35b6101336102f1565b60405161014091906118aa565b60405180910390f35b6101516102f7565b005b61016d60048036038101906101689190611990565b61030b565b005b61018960048036038101906101849190611a0e565b610743565b60405161019691906118aa565b60405180910390f35b6101a761099e565b6040516101b5929190611a4e565b60405180910390f35b6101c6610b71565b6040516101d39190611a86565b60405180910390f35b6101f660048036038101906101f19190611aa1565b610b9b565b005b610212600480360381019061020d9190611ace565b610fcb565b604051610220929190611a4e565b60405180910390f35b610243600480360381019061023e9190611b21565b611249565b60405161025091906118aa565b60405180910390f35b610261611261565b60405161026e9190611944565b60405180910390f35b610291600480360381019061028c9190611a0e565b611287565b6040516102a093929190611b4e565b60405180910390f35b6102c360048036038101906102be9190611b21565b611487565b005b60045481565b600360009054906101000a900473ffffffffffffffffffffffffffffffffffffffff1681565b60065481565b6102ff61150d565b6103096000611594565b565b61031361165a565b8181600082111580610326575060008111155b1561035d576040517f5e85ae7300000000000000000000000000000000000000000000000000000000815260040160405180910390fd5b6000600260009054906101000a900473ffffffffffffffffffffffffffffffffffffffff1673ffffffffffffffffffffffffffffffffffffffff166370a08231306040518263ffffffff1660e01b81526004016103ba9190611a86565b602060405180830381865afa1580156103d7573d6000803e3d6000fd5b505050506040513d601f19601f820116820180604052508101906103fb9190611b9a565b90506000600360009054906101000a900473ffffffffffffffffffffffffffffffffffffffff1673ffffffffffffffffffffffffffffffffffffffff166370a08231306040518263ffffffff1660e01b815260040161045a9190611a86565b602060405180830381865afa158015610477573d6000803e3d6000fd5b505050506040513d601f19601f8201168201806040525081019061049b9190611b9a565b9050600060045411156104f85781856104b49190611bf6565b81876104c09190611bf6565b146104f7576040517f5c16b4ef00000000000000000000000000000000000000000000000000000000815260040160405180910390fd5b5b600260009054906101000a900473ffffffffffffffffffffffffffffffffffffffff1673ffffffffffffffffffffffffffffffffffffffff166323b872dd3330896040518463ffffffff1660e01b815260040161055793929190611c38565b6020604051808303816000875af1158015610576573d6000803e3d6000fd5b505050506040513d601f19601f8201168201806040525081019061059a9190611ca7565b50600360009054906101000a900473ffffffffffffffffffffffffffffffffffffffff1673ffffffffffffffffffffffffffffffffffffffff166323b872dd3330886040518463ffffffff1660e01b81526004016105fa93929190611c38565b6020604051808303816000875af1158015610619573d6000803e3d6000fd5b505050506040513d601f19601f8201168201806040525081019061063d9190611ca7565b50600080600454146106675782600454886106589190611bf6565b6106629190611d03565b61067c565b61067b86886106769190611bf6565b6116a0565b5b905080600560003373ffffffffffffffffffffffffffffffffffffffff1673ffffffffffffffffffffffffffffffffffffffff16815260200190815260200160002060008282546106cd9190611d34565b9250508190555080600460008282546106e69190611d34565b9250508190555085873373ffffffffffffffffffffffffffffffffffffffff167f4da600077ef1c533c6fc47d886b74f8eb10195c987edfc00c907a2e184a0279460405160405180910390a4505050505061073f6116fd565b5050565b60008160008111610780576040517f5e85ae7300000000000000000000000000000000000000000000000000000000815260040160405180910390fd5b6000600260009054906101000a900473ffffffffffffffffffffffffffffffffffffffff1673ffffffffffffffffffffffffffffffffffffffff166370a08231306040518263ffffffff1660e01b81526004016107dd9190611a86565b602060405180830381865afa1580156107fa573d6000803e3d6000fd5b505050506040513d601f19601f8201168201806040525081019061081e9190611b9a565b90506000600360009054906101000a900473ffffffffffffffffffffffffffffffffffffffff1673ffffffffffffffffffffffffffffffffffffffff166370a08231306040518263ffffffff1660e01b815260040161087d9190611a86565b602060405180830381865afa15801561089a573d6000803e3d6000fd5b505050506040513d601f19601f820116820180604052508101906108be9190611b9a565b90506000821115806108d1575060008111155b15610908576040517f7b9c891600000000000000000000000000000000000000000000000000000000815260040160405180910390fd5b600260009054906101000a900473ffffffffffffffffffffffffffffffffffffffff1673ffffffffffffffffffffffffffffffffffffffff168673ffffffffffffffffffffffffffffffffffffffff160361097b5781818661096a9190611bf6565b6109749190611d03565b9350610995565b8082866109889190611bf6565b6109929190611d03565b93505b50505092915050565b6000806000600260009054906101000a900473ffffffffffffffffffffffffffffffffffffffff1673ffffffffffffffffffffffffffffffffffffffff166370a08231306040518263ffffffff1660e01b81526004016109fe9190611a86565b602060405180830381865afa158015610a1b573d6000803e3d6000fd5b505050506040513d601f19601f82011682018060405250810190610a3f9190611b9a565b90506000600360009054906101000a900473ffffffffffffffffffffffffffffffffffffffff1673ffffffffffffffffffffffffffffffffffffffff166370a08231306040518263ffffffff1660e01b8152600401610a9e9190611a86565b602060405180830381865afa158015610abb573d6000803e3d6000fd5b505050506040513d601f19601f82011682018060405250810190610adf9190611b9a565b9050600082111580610af2575060008111155b15610b29576040517f7b9c891600000000000000000000000000000000000000000000000000000000815260040160405180910390fd5b81670de0b6b3a764000082610b3e9190611bf6565b610b489190611d03565b935080670de0b6b3a764000083610b5f9190611bf6565b610b699190611d03565b925050509091565b6000600160009054906101000a900473ffffffffffffffffffffffffffffffffffffffff16905090565b610ba361165a565b8060008111610bde576040517f5e85ae7300000000000000000000000000000000000000000000000000000000815260040160405180910390fd5b81600560003373ffffffffffffffffffffffffffffffffffffffff1673ffffffffffffffffffffffffffffffffffffffff168152602001908152602001600020541015610c57576040517fbb55fd2700000000000000000000000000000000000000000000000000000000815260040160405180910390fd5b6000600454600260009054906101000a900473ffffffffffffffffffffffffffffffffffffffff1673ffffffffffffffffffffffffffffffffffffffff166370a08231306040518263ffffffff1660e01b8152600401610cb79190611a86565b602060405180830381865afa158015610cd4573d6000803e3d6000fd5b505050506040513d601f19601f82011682018060405250810190610cf89190611b9a565b84610d039190611bf6565b610d0d9190611d03565b90506000600454600360009054906101000a900473ffffffffffffffffffffffffffffffffffffffff1673ffffffffffffffffffffffffffffffffffffffff166370a08231306040518263ffffffff1660e01b8152600401610d6f9190611a86565b602060405180830381865afa158015610d8c573d6000803e3d6000fd5b505050506040513d601f19601f82011682018060405250810190610db09190611b9a565b85610dbb9190611bf6565b610dc59190611d03565b905083600560003373ffffffffffffffffffffffffffffffffffffffff1673ffffffffffffffffffffffffffffffffffffffff1681526020019081526020016000206000828254610e169190611d68565b925050819055508360046000828254610e2f9190611d68565b92505081905550600260009054906101000a900473ffffffffffffffffffffffffffffffffffffffff1673ffffffffffffffffffffffffffffffffffffffff1663a9059cbb33846040518363ffffffff1660e01b8152600401610e93929190611d9c565b6020604051808303816000875af1158015610eb2573d6000803e3d6000fd5b505050506040513d601f19601f82011682018060405250810190610ed69190611ca7565b50600360009054906101000a900473ffffffffffffffffffffffffffffffffffffffff1673ffffffffffffffffffffffffffffffffffffffff1663a9059cbb33836040518363ffffffff1660e01b8152600401610f34929190611d9c565b6020604051808303816000875af1158015610f53573d6000803e3d6000fd5b505050506040513d601f19601f82011682018060405250810190610f779190611ca7565b5080823373ffffffffffffffffffffffffffffffffffffffff167f96cd817c6329656790ef8fba7675405193677d39619571282f5e21f3a98cd05960405160405180910390a4505050610fc86116fd565b50565b600080610fd661165a565b8383600082111580610fe9575060008111155b15611020576040517f5e85ae7300000000000000000000000000000000000000000000000000000000815260040160405180910390fd5b8585111561105a576040517fd856fc5a00000000000000000000000000000000000000000000000000000000815260040160405180910390fd5b6110648787611287565b508094508195505050848410156110a7576040517f8199f5f300000000000000000000000000000000000000000000000000000000815260040160405180910390fd5b6000806110b389611707565b915091508173ffffffffffffffffffffffffffffffffffffffff166323b872dd33308b6040518463ffffffff1660e01b81526004016110f493929190611c38565b6020604051808303816000875af1158015611113573d6000803e3d6000fd5b505050506040513d601f19601f820116820180604052508101906111379190611ca7565b508073ffffffffffffffffffffffffffffffffffffffff1663a9059cbb33886040518363ffffffff1660e01b8152600401611173929190611d9c565b6020604051808303816000875af1158015611192573d6000803e3d6000fd5b505050506040513d601f19601f820116820180604052508101906111b69190611ca7565b508073ffffffffffffffffffffffffffffffffffffffff168973ffffffffffffffffffffffffffffffffffffffff163373ffffffffffffffffffffffffffffffffffffffff167f6782190c91d4a7e8ad2a867deed6ec0a970cab8ff137ae2bd4abd92b3810f4d38b8a60405161122d929190611a4e565b60405180910390a4505050506112416116fd565b935093915050565b60056020528060005260406000206000915090505481565b600260009054906101000a900473ffffffffffffffffffffffffffffffffffffffff1681565b600080600083600081116112c7576040517f5e85ae7300000000000000000000000000000000000000000000000000000000815260040160405180910390fd5b6000806112d388611707565b9150915060008273ffffffffffffffffffffffffffffffffffffffff166370a08231306040518263ffffffff1660e01b81526004016113129190611a86565b602060405180830381865afa15801561132f573d6000803e3d6000fd5b505050506040513d601f19601f820116820180604052508101906113539190611b9a565b905060008273ffffffffffffffffffffffffffffffffffffffff166370a08231306040518263ffffffff1660e01b81526004016113909190611a86565b602060405180830381865afa1580156113ad573d6000803e3d6000fd5b505050506040513d601f19601f820116820180604052508101906113d19190611b9a565b905068056bc75e2d631000006006548a6113eb9190611bf6565b6113f59190611d03565b96506000878a6114059190611d68565b9050600082826114159190611bf6565b9050600082856114259190611d34565b905080826114339190611d03565b9a5060008c866114439190611d34565b905060008c866114539190611d68565b905080670de0b6b3a76400008361146a9190611bf6565b6114749190611d03565b9a50505050505050505050509250925092565b61148f61150d565b600073ffffffffffffffffffffffffffffffffffffffff168173ffffffffffffffffffffffffffffffffffffffff16036115015760006040517f1e4fbdf70000000000000000000000000000000000000000000000000000000081526004016114f89190611a86565b60405180910390fd5b61150a81611594565b50565b611515611889565b73ffffffffffffffffffffffffffffffffffffffff16611533610b71565b73ffffffffffffffffffffffffffffffffffffffff161461159257611556611889565b6040517f118cdaa70000000000000000000000000000000000000000000000000000000081526004016115899190611a86565b60405180910390fd5b565b6000600160009054906101000a900473ffffffffffffffffffffffffffffffffffffffff16905081600160006101000a81548173ffffffffffffffffffffffffffffffffffffffff021916908373ffffffffffffffffffffffffffffffffffffffff1602179055508173ffffffffffffffffffffffffffffffffffffffff168173ffffffffffffffffffffffffffffffffffffffff167f8be0079c531659141344cd1fd0a4f28419497f9722a3daafe3b4186f6b6457e060405160405180910390a35050565b600260005403611696576040517f3ee5aeb500000000000000000000000000000000000000000000000000000000815260040160405180910390fd5b6002600081905550565b60008060026001846116b29190611d34565b6116bc9190611d03565b90508291505b818110156116f75780915060028182856116dc9190611d03565b6116e69190611d34565b6116f09190611d03565b90506116c2565b50919050565b6001600081905550565b600080600260009054906101000a900473ffffffffffffffffffffffffffffffffffffffff1673ffffffffffffffffffffffffffffffffffffffff168373ffffffffffffffffffffffffffffffffffffffff16036117ae57600260009054906101000a900473ffffffffffffffffffffffffffffffffffffffff16600360009054906101000a900473ffffffffffffffffffffffffffffffffffffffff1691509150611884565b600360009054906101000a900473ffffffffffffffffffffffffffffffffffffffff1673ffffffffffffffffffffffffffffffffffffffff168373ffffffffffffffffffffffffffffffffffffffff160361185257600360009054906101000a900473ffffffffffffffffffffffffffffffffffffffff16600260009054906101000a900473ffffffffffffffffffffffffffffffffffffffff1691509150611884565b6040517fe6c4247b00000000000000000000000000000000000000000000000000000000815260040160405180910390fd5b915091565b600033905090565b6000819050919050565b6118a481611891565b82525050565b60006020820190506118bf600083018461189b565b92915050565b600073ffffffffffffffffffffffffffffffffffffffff82169050919050565b6000819050919050565b600061190a611905611900846118c5565b6118e5565b6118c5565b9050919050565b600061191c826118ef565b9050919050565b600061192e82611911565b9050919050565b61193e81611923565b82525050565b60006020820190506119596000830184611935565b92915050565b600080fd5b61196d81611891565b811461197857600080fd5b50565b60008135905061198a81611964565b92915050565b600080604083850312156119a7576119a661195f565b5b60006119b58582860161197b565b92505060206119c68582860161197b565b9150509250929050565b60006119db826118c5565b9050919050565b6119eb816119d0565b81146119f657600080fd5b50565b600081359050611a08816119e2565b92915050565b60008060408385031215611a2557611a2461195f565b5b6000611a33858286016119f9565b9250506020611a448582860161197b565b9150509250929050565b6000604082019050611a63600083018561189b565b611a70602083018461189b565b9392505050565b611a80816119d0565b82525050565b6000602082019050611a9b6000830184611a77565b92915050565b600060208284031215611ab757611ab661195f565b5b6000611ac58482850161197b565b91505092915050565b600080600060608486031215611ae757611ae661195f565b5b6000611af5868287016119f9565b9350506020611b068682870161197b565b9250506040611b178682870161197b565b9150509250925092565b600060208284031215611b3757611b3661195f565b5b6000611b45848285016119f9565b91505092915050565b6000606082019050611b63600083018661189b565b611b70602083018561189b565b611b7d604083018461189b565b949350505050565b600081519050611b9481611964565b92915050565b600060208284031215611bb057611baf61195f565b5b6000611bbe84828501611b85565b91505092915050565b7f4e487b7100000000000000000000000000000000000000000000000000000000600052601160045260246000fd5b6000611c0182611891565b9150611c0c83611891565b9250828202611c1a81611891565b91508282048414831517611c3157611c30611bc7565b5b5092915050565b6000606082019050611c4d6000830186611a77565b611c5a6020830185611a77565b611c67604083018461189b565b949350505050565b60008115159050919050565b611c8481611c6f565b8114611c8f57600080fd5b50565b600081519050611ca181611c7b565b92915050565b600060208284031215611cbd57611cbc61195f565b5b6000611ccb84828501611c92565b91505092915050565b7f4e487b7100000000000000000000000000000000000000000000000000000000600052601260045260246000fd5b6000611d0e82611891565b9150611d1983611891565b925082611d2957611d28611cd4565b5b828204905092915050565b6000611d3f82611891565b9150611d4a83611891565b9250828201905080821115611d6257611d61611bc7565b5b92915050565b6000611d7382611891565b9150611d7e83611891565b9250828203905081811115611d9657611d95611bc7565b5b92915050565b6000604082019050611db16000830185611a77565b611dbe602083018461189b565b939250505056fea26469706673582212204391673d6367f0f95f9d47574391628bbe77f73d21aecda0af26f7e3677f68fd64736f6c63430008180033",
  "linkReferences": {},
  "deployedLinkReferences": {}
}