{
  "_format": "hh-sol-artifact-1",
  "contractName": "AMM",
  "sourceName": "contracts/AMM.sol",
  "abi": [
    {
      "inputs": [
        {
          "internalType": "address",
          "name": "_token1",
          "type": "address"
        },
        {
          "internalType": "address",
          "name": "_token2",
          "type": "address"
        }
      ],
      "stateMutability": "nonpayable",
      "type": "constructor"
    },
    {
      "inputs": [],
      "name": "AmountMustBeGreaterThanZero",
      "type": "error"
    },
    {
      "inputs": [],
      "name": "InsufficientLiquidity",
      "type": "error"
    },
    {
      "inputs": [],
      "name": "InvalidAddress",
      "type": "error"
    },
    {
      "inputs": [],
      "name": "InvalidAmounts",
      "type": "error"
    },
    {
      "inputs": [],
      "name": "InvalidReserves",
      "type": "error"
    },
    {
      "inputs": [
        {
          "internalType": "address",
          "name": "owner",
          "type": "address"
        }
      ],
      "name": "OwnableInvalidOwner",
      "type": "error"
    },
    {
      "inputs": [
        {
          "internalType": "address",
          "name": "account",
          "type": "address"
        }
      ],
      "name": "OwnableUnauthorizedAccount",
      "type": "error"
    },
    {
      "inputs": [],
      "name": "ReentrancyGuardReentrantCall",
      "type": "error"
    },
    {
      "inputs": [],
      "name": "SlippageExceeded",
      "type": "error"
    },
    {
      "anonymous": false,
      "inputs": [
        {
          "indexed": true,
          "internalType": "address",
          "name": "provider",
          "type": "address"
        },
        {
          "indexed": true,
          "internalType": "uint256",
          "name": "amount1",
          "type": "uint256"
        },
        {
          "indexed": true,
          "internalType": "uint256",
          "name": "amount2",
          "type": "uint256"
        }
      ],
      "name": "LiquidityProvided",
      "type": "event"
    },
    {
      "anonymous": false,
      "inputs": [
        {
          "indexed": true,
          "internalType": "address",
          "name": "provider",
          "type": "address"
        },
        {
          "indexed": true,
          "internalType": "uint256",
          "name": "amount1",
          "type": "uint256"
        },
        {
          "indexed": true,
          "internalType": "uint256",
          "name": "amount2",
          "type": "uint256"
        }
      ],
      "name": "LiquidityRemoved",
      "type": "event"
    },
    {
      "anonymous": false,
      "inputs": [
        {
          "indexed": true,
          "internalType": "address",
          "name": "previousOwner",
          "type": "address"
        },
        {
          "indexed": true,
          "internalType": "address",
          "name": "newOwner",
          "type": "address"
        }
      ],
      "name": "OwnershipTransferred",
      "type": "event"
    },
    {
      "anonymous": false,
      "inputs": [
        {
          "indexed": true,
          "internalType": "address",
          "name": "swapper",
          "type": "address"
        },
        {
          "indexed": true,
          "internalType": "address",
          "name": "tokenIn",
          "type": "address"
        },
        {
          "indexed": true,
          "internalType": "address",
          "name": "tokenOut",
          "type": "address"
        },
        {
          "indexed": false,
          "internalType": "uint256",
          "name": "amountIn",
          "type": "uint256"
        },
        {
          "indexed": false,
          "internalType": "uint256",
          "name": "amountOut",
          "type": "uint256"
        }
      ],
      "name": "Swapped",
      "type": "event"
    },
    {
      "inputs": [
        {
          "internalType": "address",
          "name": "user",
          "type": "address"
        },
        {
          "internalType": "uint256",
          "name": "percentInWei",
          "type": "uint256"
        }
      ],
      "name": "calculateUserLiquidityWithdrawal",
      "outputs": [
        {
          "internalType": "uint256",
          "name": "token1Amount",
          "type": "uint256"
        },
        {
          "internalType": "uint256",
          "name": "token2Amount",
          "type": "uint256"
        }
      ],
      "stateMutability": "view",
      "type": "function"
    },
    {
      "inputs": [],
      "name": "getCurrentPrices",
      "outputs": [
        {
          "internalType": "uint256",
          "name": "priceToken1InToken2",
          "type": "uint256"
        },
        {
          "internalType": "uint256",
          "name": "priceToken2InToken1",
          "type": "uint256"
        }
      ],
      "stateMutability": "view",
      "type": "function"
    },
    {
      "inputs": [
        {
          "internalType": "address",
          "name": "tokenIn",
          "type": "address"
        },
        {
          "internalType": "uint256",
          "name": "amount",
          "type": "uint256"
        }
      ],
      "name": "getRequiredTokenAmount",
      "outputs": [
        {
          "internalType": "uint256",
          "name": "amountRequired",
          "type": "uint256"
        }
      ],
      "stateMutability": "view",
      "type": "function"
    },
    {
      "inputs": [
        {
          "internalType": "address",
          "name": "tokenIn",
          "type": "address"
        },
        {
          "internalType": "uint256",
          "name": "amountIn",
          "type": "uint256"
        }
      ],
      "name": "getSwapDetails",
      "outputs": [
        {
          "internalType": "uint256",
          "name": "amountOut",
          "type": "uint256"
        },
        {
          "internalType": "uint256",
          "name": "fee",
          "type": "uint256"
        },
        {
          "internalType": "uint256",
          "name": "newPrice",
          "type": "uint256"
        }
      ],
      "stateMutability": "view",
      "type": "function"
    },
    {
      "inputs": [
        {
          "internalType": "address",
          "name": "user",
          "type": "address"
        }
      ],
      "name": "getUserLiquidity",
      "outputs": [
        {
          "internalType": "uint256",
          "name": "token1Amount",
          "type": "uint256"
        },
        {
          "internalType": "uint256",
          "name": "token2Amount",
          "type": "uint256"
        }
      ],
      "stateMutability": "view",
      "type": "function"
    },
    {
      "inputs": [
        {
          "internalType": "address",
          "name": "",
          "type": "address"
        }
      ],
      "name": "liquidity",
      "outputs": [
        {
          "internalType": "uint256",
          "name": "",
          "type": "uint256"
        }
      ],
      "stateMutability": "view",
      "type": "function"
    },
    {
      "inputs": [],
      "name": "owner",
      "outputs": [
        {
          "internalType": "address",
          "name": "",
          "type": "address"
        }
      ],
      "stateMutability": "view",
      "type": "function"
    },
    {
      "inputs": [
        {
          "internalType": "address",
          "name": "tokenIn",
          "type": "address"
        },
        {
          "internalType": "uint256",
          "name": "amountIn",
          "type": "uint256"
        }
      ],
      "name": "provideLiquidity",
      "outputs": [],
      "stateMutability": "nonpayable",
      "type": "function"
    },
    {
      "inputs": [
        {
          "internalType": "uint256",
          "name": "liquidityAmount",
          "type": "uint256"
        }
      ],
      "name": "removeLiquidity",
      "outputs": [],
      "stateMutability": "nonpayable",
      "type": "function"
    },
    {
      "inputs": [],
      "name": "renounceOwnership",
      "outputs": [],
      "stateMutability": "nonpayable",
      "type": "function"
    },
    {
      "inputs": [
        {
          "internalType": "address",
          "name": "tokenIn",
          "type": "address"
        },
        {
          "internalType": "uint256",
          "name": "amountIn",
          "type": "uint256"
        },
        {
          "internalType": "uint256",
          "name": "minAmountOut",
          "type": "uint256"
        }
      ],
      "name": "swap",
      "outputs": [
        {
          "internalType": "uint256",
          "name": "amountOut",
          "type": "uint256"
        },
        {
          "internalType": "uint256",
          "name": "fee",
          "type": "uint256"
        }
      ],
      "stateMutability": "nonpayable",
      "type": "function"
    },
    {
      "inputs": [],
      "name": "swapFee",
      "outputs": [
        {
          "internalType": "uint256",
          "name": "",
          "type": "uint256"
        }
      ],
      "stateMutability": "view",
      "type": "function"
    },
    {
      "inputs": [],
      "name": "token1",
      "outputs": [
        {
          "internalType": "contract IERC20",
          "name": "",
          "type": "address"
        }
      ],
      "stateMutability": "view",
      "type": "function"
    },
    {
      "inputs": [],
      "name": "token2",
      "outputs": [
        {
          "internalType": "contract IERC20",
          "name": "",
          "type": "address"
        }
      ],
      "stateMutability": "view",
      "type": "function"
    },
    {
      "inputs": [],
      "name": "totalLiquidity",
      "outputs": [
        {
          "internalType": "uint256",
          "name": "",
          "type": "uint256"
        }
      ],
      "stateMutability": "view",
      "type": "function"
    },
    {
      "inputs": [
        {
          "internalType": "address",
          "name": "newOwner",
          "type": "address"
        }
      ],
      "name": "transferOwnership",
      "outputs": [],
      "stateMutability": "nonpayable",
      "type": "function"
    }
  ],
  "bytecode": "0x60806040523480156200001157600080fd5b506040516200245938038062002459833981810160405281019062000037919062000290565b336001600081905550600073ffffffffffffffffffffffffffffffffffffffff168173ffffffffffffffffffffffffffffffffffffffff1603620000b55760006040517f1e4fbdf7000000000000000000000000000000000000000000000000000000008152600401620000ac9190620002e8565b60405180910390fd5b620000c6816200016060201b60201c565b5081600260006101000a81548173ffffffffffffffffffffffffffffffffffffffff021916908373ffffffffffffffffffffffffffffffffffffffff16021790555080600360006101000a81548173ffffffffffffffffffffffffffffffffffffffff021916908373ffffffffffffffffffffffffffffffffffffffff160217905550670de0b6b3a7640000600681905550505062000305565b6000600160009054906101000a900473ffffffffffffffffffffffffffffffffffffffff16905081600160006101000a81548173ffffffffffffffffffffffffffffffffffffffff021916908373ffffffffffffffffffffffffffffffffffffffff1602179055508173ffffffffffffffffffffffffffffffffffffffff168173ffffffffffffffffffffffffffffffffffffffff167f8be0079c531659141344cd1fd0a4f28419497f9722a3daafe3b4186f6b6457e060405160405180910390a35050565b600080fd5b600073ffffffffffffffffffffffffffffffffffffffff82169050919050565b600062000258826200022b565b9050919050565b6200026a816200024b565b81146200027657600080fd5b50565b6000815190506200028a816200025f565b92915050565b60008060408385031215620002aa57620002a962000226565b5b6000620002ba8582860162000279565b9250506020620002cd8582860162000279565b9150509250929050565b620002e2816200024b565b82525050565b6000602082019050620002ff6000830184620002d7565b92915050565b61214480620003156000396000f3fe608060405234801561001057600080fd5b50600436106101005760003560e01c80638da5cb5b11610097578063d21220a711610066578063d21220a7146102a0578063dbbdd935146102be578063df51abef146102ef578063f2fde38b1461032157610100565b80638da5cb5b146102055780639c8f9f23146102235780639f1d0f591461023f578063b8c876b11461027057610100565b80635fea6120116100d35780635fea612014610190578063715018a6146101ac5780637bce97ee146101b6578063852d0d6e146101e657610100565b80630b6bca301461010557806315770f921461013657806325be124e1461015457806354cf2aeb14610172575b600080fd5b61011f600480360381019061011a9190611cb3565b61033d565b60405161012d929190611d02565b60405180910390f35b61013e610533565b60405161014b9190611d2b565b60405180910390f35b61015c610539565b6040516101699190611da5565b60405180910390f35b61017a61055f565b6040516101879190611d2b565b60405180910390f35b6101aa60048036038101906101a59190611cb3565b610565565b005b6101b46108e9565b005b6101d060048036038101906101cb9190611cb3565b6108fd565b6040516101dd9190611d2b565b60405180910390f35b6101ee610b58565b6040516101fc929190611d02565b60405180910390f35b61020d610d2b565b60405161021a9190611dcf565b60405180910390f35b61023d60048036038101906102389190611dea565b610d55565b005b61025960048036038101906102549190611e17565b611185565b604051610267929190611d02565b60405180910390f35b61028a60048036038101906102859190611e6a565b611403565b6040516102979190611d2b565b60405180910390f35b6102a861141b565b6040516102b59190611da5565b60405180910390f35b6102d860048036038101906102d39190611e6a565b611441565b6040516102e6929190611d02565b60405180910390f35b61030960048036038101906103049190611cb3565b611610565b60405161031893929190611e97565b60405180910390f35b61033b60048036038101906103369190611e6a565b611810565b005b6000806000600560008673ffffffffffffffffffffffffffffffffffffffff1673ffffffffffffffffffffffffffffffffffffffff1681526020019081526020016000205490506000810361039957600080925092505061052c565b600068056bc75e2d6310000085836103b19190611efd565b6103bb9190611f6e565b9050600454600260009054906101000a900473ffffffffffffffffffffffffffffffffffffffff1673ffffffffffffffffffffffffffffffffffffffff166370a08231306040518263ffffffff1660e01b815260040161041b9190611dcf565b602060405180830381865afa158015610438573d6000803e3d6000fd5b505050506040513d601f19601f8201168201806040525081019061045c9190611fb4565b826104679190611efd565b6104719190611f6e565b9350600454600360009054906101000a900473ffffffffffffffffffffffffffffffffffffffff1673ffffffffffffffffffffffffffffffffffffffff166370a08231306040518263ffffffff1660e01b81526004016104d19190611dcf565b602060405180830381865afa1580156104ee573d6000803e3d6000fd5b505050506040513d601f19601f820116820180604052508101906105129190611fb4565b8261051d9190611efd565b6105279190611f6e565b925050505b9250929050565b60045481565b600360009054906101000a900473ffffffffffffffffffffffffffffffffffffffff1681565b60065481565b61056d611896565b80600081116105a8576040517f5e85ae7300000000000000000000000000000000000000000000000000000000815260040160405180910390fd5b6000806105b4856118dc565b9150915060008273ffffffffffffffffffffffffffffffffffffffff166370a08231306040518263ffffffff1660e01b81526004016105f39190611dcf565b602060405180830381865afa158015610610573d6000803e3d6000fd5b505050506040513d601f19601f820116820180604052508101906106349190611fb4565b905060008273ffffffffffffffffffffffffffffffffffffffff166370a08231306040518263ffffffff1660e01b81526004016106719190611dcf565b602060405180830381865afa15801561068e573d6000803e3d6000fd5b505050506040513d601f19601f820116820180604052508101906106b29190611fb4565b90506000808314806106c45750600082145b156106d1578690506106de565b6106db88886108fd565b90505b8473ffffffffffffffffffffffffffffffffffffffff166323b872dd33308a6040518463ffffffff1660e01b815260040161071b93929190611fe1565b6020604051808303816000875af115801561073a573d6000803e3d6000fd5b505050506040513d601f19601f8201168201806040525081019061075e9190612050565b508373ffffffffffffffffffffffffffffffffffffffff166323b872dd3330846040518463ffffffff1660e01b815260040161079c93929190611fe1565b6020604051808303816000875af11580156107bb573d6000803e3d6000fd5b505050506040513d601f19601f820116820180604052508101906107df9190612050565b5060008060045403610806576107ff82896107fa9190611efd565b611a5e565b9050610822565b83600454896108159190611efd565b61081f9190611f6e565b90505b80600560003373ffffffffffffffffffffffffffffffffffffffff1673ffffffffffffffffffffffffffffffffffffffff1681526020019081526020016000206000828254610871919061207d565b92505081905550806004600082825461088a919061207d565b9250508190555081883373ffffffffffffffffffffffffffffffffffffffff167f4da600077ef1c533c6fc47d886b74f8eb10195c987edfc00c907a2e184a0279460405160405180910390a4505050505050506108e5611abb565b5050565b6108f1611ac5565b6108fb6000611b4c565b565b6000816000811161093a576040517f5e85ae7300000000000000000000000000000000000000000000000000000000815260040160405180910390fd5b6000600260009054906101000a900473ffffffffffffffffffffffffffffffffffffffff1673ffffffffffffffffffffffffffffffffffffffff166370a08231306040518263ffffffff1660e01b81526004016109979190611dcf565b602060405180830381865afa1580156109b4573d6000803e3d6000fd5b505050506040513d601f19601f820116820180604052508101906109d89190611fb4565b90506000600360009054906101000a900473ffffffffffffffffffffffffffffffffffffffff1673ffffffffffffffffffffffffffffffffffffffff166370a08231306040518263ffffffff1660e01b8152600401610a379190611dcf565b602060405180830381865afa158015610a54573d6000803e3d6000fd5b505050506040513d601f19601f82011682018060405250810190610a789190611fb4565b9050600082111580610a8b575060008111155b15610ac2576040517f7b9c891600000000000000000000000000000000000000000000000000000000815260040160405180910390fd5b600260009054906101000a900473ffffffffffffffffffffffffffffffffffffffff1673ffffffffffffffffffffffffffffffffffffffff168673ffffffffffffffffffffffffffffffffffffffff1603610b3557818186610b249190611efd565b610b2e9190611f6e565b9350610b4f565b808286610b429190611efd565b610b4c9190611f6e565b93505b50505092915050565b6000806000600260009054906101000a900473ffffffffffffffffffffffffffffffffffffffff1673ffffffffffffffffffffffffffffffffffffffff166370a08231306040518263ffffffff1660e01b8152600401610bb89190611dcf565b602060405180830381865afa158015610bd5573d6000803e3d6000fd5b505050506040513d601f19601f82011682018060405250810190610bf99190611fb4565b90506000600360009054906101000a900473ffffffffffffffffffffffffffffffffffffffff1673ffffffffffffffffffffffffffffffffffffffff166370a08231306040518263ffffffff1660e01b8152600401610c589190611dcf565b602060405180830381865afa158015610c75573d6000803e3d6000fd5b505050506040513d601f19601f82011682018060405250810190610c999190611fb4565b9050600082111580610cac575060008111155b15610ce3576040517f7b9c891600000000000000000000000000000000000000000000000000000000815260040160405180910390fd5b81670de0b6b3a764000082610cf89190611efd565b610d029190611f6e565b935080670de0b6b3a764000083610d199190611efd565b610d239190611f6e565b925050509091565b6000600160009054906101000a900473ffffffffffffffffffffffffffffffffffffffff16905090565b610d5d611896565b8060008111610d98576040517f5e85ae7300000000000000000000000000000000000000000000000000000000815260040160405180910390fd5b81600560003373ffffffffffffffffffffffffffffffffffffffff1673ffffffffffffffffffffffffffffffffffffffff168152602001908152602001600020541015610e11576040517fbb55fd2700000000000000000000000000000000000000000000000000000000815260040160405180910390fd5b6000600454600260009054906101000a900473ffffffffffffffffffffffffffffffffffffffff1673ffffffffffffffffffffffffffffffffffffffff166370a08231306040518263ffffffff1660e01b8152600401610e719190611dcf565b602060405180830381865afa158015610e8e573d6000803e3d6000fd5b505050506040513d601f19601f82011682018060405250810190610eb29190611fb4565b84610ebd9190611efd565b610ec79190611f6e565b90506000600454600360009054906101000a900473ffffffffffffffffffffffffffffffffffffffff1673ffffffffffffffffffffffffffffffffffffffff166370a08231306040518263ffffffff1660e01b8152600401610f299190611dcf565b602060405180830381865afa158015610f46573d6000803e3d6000fd5b505050506040513d601f19601f82011682018060405250810190610f6a9190611fb4565b85610f759190611efd565b610f7f9190611f6e565b905083600560003373ffffffffffffffffffffffffffffffffffffffff1673ffffffffffffffffffffffffffffffffffffffff1681526020019081526020016000206000828254610fd091906120b1565b925050819055508360046000828254610fe991906120b1565b92505081905550600260009054906101000a900473ffffffffffffffffffffffffffffffffffffffff1673ffffffffffffffffffffffffffffffffffffffff1663a9059cbb33846040518363ffffffff1660e01b815260040161104d9291906120e5565b6020604051808303816000875af115801561106c573d6000803e3d6000fd5b505050506040513d601f19601f820116820180604052508101906110909190612050565b50600360009054906101000a900473ffffffffffffffffffffffffffffffffffffffff1673ffffffffffffffffffffffffffffffffffffffff1663a9059cbb33836040518363ffffffff1660e01b81526004016110ee9291906120e5565b6020604051808303816000875af115801561110d573d6000803e3d6000fd5b505050506040513d601f19601f820116820180604052508101906111319190612050565b5080823373ffffffffffffffffffffffffffffffffffffffff167f96cd817c6329656790ef8fba7675405193677d39619571282f5e21f3a98cd05960405160405180910390a4505050611182611abb565b50565b600080611190611896565b83836000821115806111a3575060008111155b156111da576040517f5e85ae7300000000000000000000000000000000000000000000000000000000815260040160405180910390fd5b85851115611214576040517fd856fc5a00000000000000000000000000000000000000000000000000000000815260040160405180910390fd5b61121e8787611610565b50809450819550505084841015611261576040517f8199f5f300000000000000000000000000000000000000000000000000000000815260040160405180910390fd5b60008061126d896118dc565b915091508173ffffffffffffffffffffffffffffffffffffffff166323b872dd33308b6040518463ffffffff1660e01b81526004016112ae93929190611fe1565b6020604051808303816000875af11580156112cd573d6000803e3d6000fd5b505050506040513d601f19601f820116820180604052508101906112f19190612050565b508073ffffffffffffffffffffffffffffffffffffffff1663a9059cbb33886040518363ffffffff1660e01b815260040161132d9291906120e5565b6020604051808303816000875af115801561134c573d6000803e3d6000fd5b505050506040513d601f19601f820116820180604052508101906113709190612050565b508073ffffffffffffffffffffffffffffffffffffffff168973ffffffffffffffffffffffffffffffffffffffff163373ffffffffffffffffffffffffffffffffffffffff167f6782190c91d4a7e8ad2a867deed6ec0a970cab8ff137ae2bd4abd92b3810f4d38b8a6040516113e7929190611d02565b60405180910390a4505050506113fb611abb565b935093915050565b60056020528060005260406000206000915090505481565b600260009054906101000a900473ffffffffffffffffffffffffffffffffffffffff1681565b6000806000600560008573ffffffffffffffffffffffffffffffffffffffff1673ffffffffffffffffffffffffffffffffffffffff1681526020019081526020016000205490506000810361149d57600080925092505061160b565b600454600260009054906101000a900473ffffffffffffffffffffffffffffffffffffffff1673ffffffffffffffffffffffffffffffffffffffff166370a08231306040518263ffffffff1660e01b81526004016114fb9190611dcf565b602060405180830381865afa158015611518573d6000803e3d6000fd5b505050506040513d601f19601f8201168201806040525081019061153c9190611fb4565b826115479190611efd565b6115519190611f6e565b9250600454600360009054906101000a900473ffffffffffffffffffffffffffffffffffffffff1673ffffffffffffffffffffffffffffffffffffffff166370a08231306040518263ffffffff1660e01b81526004016115b19190611dcf565b602060405180830381865afa1580156115ce573d6000803e3d6000fd5b505050506040513d601f19601f820116820180604052508101906115f29190611fb4565b826115fd9190611efd565b6116079190611f6e565b9150505b915091565b60008060008360008111611650576040517f5e85ae7300000000000000000000000000000000000000000000000000000000815260040160405180910390fd5b60008061165c886118dc565b9150915060008273ffffffffffffffffffffffffffffffffffffffff166370a08231306040518263ffffffff1660e01b815260040161169b9190611dcf565b602060405180830381865afa1580156116b8573d6000803e3d6000fd5b505050506040513d601f19601f820116820180604052508101906116dc9190611fb4565b905060008273ffffffffffffffffffffffffffffffffffffffff166370a08231306040518263ffffffff1660e01b81526004016117199190611dcf565b602060405180830381865afa158015611736573d6000803e3d6000fd5b505050506040513d601f19601f8201168201806040525081019061175a9190611fb4565b905068056bc75e2d631000006006548a6117749190611efd565b61177e9190611f6e565b96506000878a61178e91906120b1565b90506000828261179e9190611efd565b9050600082856117ae919061207d565b905080826117bc9190611f6e565b9a5060008c866117cc919061207d565b905060008c866117dc91906120b1565b905080670de0b6b3a7640000836117f39190611efd565b6117fd9190611f6e565b9a50505050505050505050509250925092565b611818611ac5565b600073ffffffffffffffffffffffffffffffffffffffff168173ffffffffffffffffffffffffffffffffffffffff160361188a5760006040517f1e4fbdf70000000000000000000000000000000000000000000000000000000081526004016118819190611dcf565b60405180910390fd5b61189381611b4c565b50565b6002600054036118d2576040517f3ee5aeb500000000000000000000000000000000000000000000000000000000815260040160405180910390fd5b6002600081905550565b600080600260009054906101000a900473ffffffffffffffffffffffffffffffffffffffff1673ffffffffffffffffffffffffffffffffffffffff168373ffffffffffffffffffffffffffffffffffffffff160361198357600260009054906101000a900473ffffffffffffffffffffffffffffffffffffffff16600360009054906101000a900473ffffffffffffffffffffffffffffffffffffffff1691509150611a59565b600360009054906101000a900473ffffffffffffffffffffffffffffffffffffffff1673ffffffffffffffffffffffffffffffffffffffff168373ffffffffffffffffffffffffffffffffffffffff1603611a2757600360009054906101000a900473ffffffffffffffffffffffffffffffffffffffff16600260009054906101000a900473ffffffffffffffffffffffffffffffffffffffff1691509150611a59565b6040517fe6c4247b00000000000000000000000000000000000000000000000000000000815260040160405180910390fd5b915091565b6000806002600184611a70919061207d565b611a7a9190611f6e565b90508291505b81811015611ab5578091506002818285611a9a9190611f6e565b611aa4919061207d565b611aae9190611f6e565b9050611a80565b50919050565b6001600081905550565b611acd611c12565b73ffffffffffffffffffffffffffffffffffffffff16611aeb610d2b565b73ffffffffffffffffffffffffffffffffffffffff1614611b4a57611b0e611c12565b6040517f118cdaa7000000000000000000000000000000000000000000000000000000008152600401611b419190611dcf565b60405180910390fd5b565b6000600160009054906101000a900473ffffffffffffffffffffffffffffffffffffffff16905081600160006101000a81548173ffffffffffffffffffffffffffffffffffffffff021916908373ffffffffffffffffffffffffffffffffffffffff1602179055508173ffffffffffffffffffffffffffffffffffffffff168173ffffffffffffffffffffffffffffffffffffffff167f8be0079c531659141344cd1fd0a4f28419497f9722a3daafe3b4186f6b6457e060405160405180910390a35050565b600033905090565b600080fd5b600073ffffffffffffffffffffffffffffffffffffffff82169050919050565b6000611c4a82611c1f565b9050919050565b611c5a81611c3f565b8114611c6557600080fd5b50565b600081359050611c7781611c51565b92915050565b6000819050919050565b611c9081611c7d565b8114611c9b57600080fd5b50565b600081359050611cad81611c87565b92915050565b60008060408385031215611cca57611cc9611c1a565b5b6000611cd885828601611c68565b9250506020611ce985828601611c9e565b9150509250929050565b611cfc81611c7d565b82525050565b6000604082019050611d176000830185611cf3565b611d246020830184611cf3565b9392505050565b6000602082019050611d406000830184611cf3565b92915050565b6000819050919050565b6000611d6b611d66611d6184611c1f565b611d46565b611c1f565b9050919050565b6000611d7d82611d50565b9050919050565b6000611d8f82611d72565b9050919050565b611d9f81611d84565b82525050565b6000602082019050611dba6000830184611d96565b92915050565b611dc981611c3f565b82525050565b6000602082019050611de46000830184611dc0565b92915050565b600060208284031215611e0057611dff611c1a565b5b6000611e0e84828501611c9e565b91505092915050565b600080600060608486031215611e3057611e2f611c1a565b5b6000611e3e86828701611c68565b9350506020611e4f86828701611c9e565b9250506040611e6086828701611c9e565b9150509250925092565b600060208284031215611e8057611e7f611c1a565b5b6000611e8e84828501611c68565b91505092915050565b6000606082019050611eac6000830186611cf3565b611eb96020830185611cf3565b611ec66040830184611cf3565b949350505050565b7f4e487b7100000000000000000000000000000000000000000000000000000000600052601160045260246000fd5b6000611f0882611c7d565b9150611f1383611c7d565b9250828202611f2181611c7d565b91508282048414831517611f3857611f37611ece565b5b5092915050565b7f4e487b7100000000000000000000000000000000000000000000000000000000600052601260045260246000fd5b6000611f7982611c7d565b9150611f8483611c7d565b925082611f9457611f93611f3f565b5b828204905092915050565b600081519050611fae81611c87565b92915050565b600060208284031215611fca57611fc9611c1a565b5b6000611fd884828501611f9f565b91505092915050565b6000606082019050611ff66000830186611dc0565b6120036020830185611dc0565b6120106040830184611cf3565b949350505050565b60008115159050919050565b61202d81612018565b811461203857600080fd5b50565b60008151905061204a81612024565b92915050565b60006020828403121561206657612065611c1a565b5b60006120748482850161203b565b91505092915050565b600061208882611c7d565b915061209383611c7d565b92508282019050808211156120ab576120aa611ece565b5b92915050565b60006120bc82611c7d565b91506120c783611c7d565b92508282039050818111156120df576120de611ece565b5b92915050565b60006040820190506120fa6000830185611dc0565b6121076020830184611cf3565b939250505056fea264697066735822122024a3f52c2ec32372a36640f3d87e28945da18e0c46f31f64ddd3383629e1110864736f6c63430008180033",
  "linkReferences": {},
  "deployedLinkReferences": {}
}